{
  "contractName": "KlerosLiquid",
  "abi": [
    {
      "constant": true,
      "inputs": [],
      "name": "RNBlock",
      "outputs": [
        {
          "name": "",
          "type": "uint256"
        }
      ],
      "payable": false,
      "stateMutability": "view",
      "type": "function"
    },
    {
      "constant": true,
      "inputs": [],
      "name": "disputesWithoutJurors",
      "outputs": [
        {
          "name": "",
          "type": "uint256"
        }
      ],
      "payable": false,
      "stateMutability": "view",
      "type": "function"
    },
    {
      "constant": true,
      "inputs": [],
      "name": "governor",
      "outputs": [
        {
          "name": "",
          "type": "address"
        }
      ],
      "payable": false,
      "stateMutability": "view",
      "type": "function"
    },
    {
      "constant": true,
      "inputs": [],
      "name": "lastDelayedSetStake",
      "outputs": [
        {
          "name": "",
          "type": "uint256"
        }
      ],
      "payable": false,
      "stateMutability": "view",
      "type": "function"
    },
    {
      "constant": true,
      "inputs": [],
      "name": "maxDrawingTime",
      "outputs": [
        {
          "name": "",
          "type": "uint256"
        }
      ],
      "payable": false,
      "stateMutability": "view",
      "type": "function"
    },
    {
      "constant": true,
      "inputs": [
        {
          "name": "",
          "type": "uint256"
        }
      ],
      "name": "courts",
      "outputs": [
        {
          "name": "parent",
          "type": "uint96"
        },
        {
          "name": "hiddenVotes",
          "type": "bool"
        },
        {
          "name": "minStake",
          "type": "uint256"
        },
        {
          "name": "alpha",
          "type": "uint256"
        },
        {
          "name": "jurorFee",
          "type": "uint256"
        },
        {
          "name": "jurorsForJump",
          "type": "uint256"
        }
      ],
      "payable": false,
      "stateMutability": "view",
      "type": "function"
    },
    {
      "constant": true,
      "inputs": [],
      "name": "ALPHA_DIVISOR",
      "outputs": [
        {
          "name": "",
          "type": "uint256"
        }
      ],
      "payable": false,
      "stateMutability": "view",
      "type": "function"
    },
    {
      "constant": true,
      "inputs": [
        {
          "name": "",
          "type": "uint256"
        }
      ],
      "name": "disputes",
      "outputs": [
        {
          "name": "subcourtID",
          "type": "uint96"
        },
        {
          "name": "arbitrated",
          "type": "address"
        },
        {
          "name": "numberOfChoices",
          "type": "uint256"
        },
        {
          "name": "period",
          "type": "uint8"
        },
        {
          "name": "lastPeriodChange",
          "type": "uint256"
        },
        {
          "name": "drawsPerRound",
          "type": "uint256"
        },
        {
          "name": "commitsPerRound",
          "type": "uint256"
        },
        {
          "name": "votesPerRound",
          "type": "uint256"
        },
        {
          "name": "ruled",
          "type": "bool"
        }
      ],
      "payable": false,
      "stateMutability": "view",
      "type": "function"
    },
    {
      "constant": true,
      "inputs": [],
      "name": "RN",
      "outputs": [
        {
          "name": "",
          "type": "uint256"
        }
      ],
      "payable": false,
      "stateMutability": "view",
      "type": "function"
    },
    {
      "constant": true,
      "inputs": [],
      "name": "RNGenerator",
      "outputs": [
        {
          "name": "",
          "type": "address"
        }
      ],
      "payable": false,
      "stateMutability": "view",
      "type": "function"
    },
    {
      "constant": true,
      "inputs": [],
      "name": "NON_PAYABLE_AMOUNT",
      "outputs": [
        {
          "name": "",
          "type": "uint256"
        }
      ],
      "payable": false,
      "stateMutability": "view",
      "type": "function"
    },
    {
      "constant": true,
      "inputs": [],
      "name": "phase",
      "outputs": [
        {
          "name": "",
          "type": "uint8"
        }
      ],
      "payable": false,
      "stateMutability": "view",
      "type": "function"
    },
    {
      "constant": true,
      "inputs": [
        {
          "name": "",
          "type": "uint256"
        }
      ],
      "name": "delayedSetStakes",
      "outputs": [
        {
          "name": "account",
          "type": "address"
        },
        {
          "name": "subcourtID",
          "type": "uint96"
        },
        {
          "name": "stake",
          "type": "uint256"
        }
      ],
      "payable": false,
      "stateMutability": "view",
      "type": "function"
    },
    {
      "constant": true,
      "inputs": [],
      "name": "lastPhaseChange",
      "outputs": [
        {
          "name": "",
          "type": "uint256"
        }
      ],
      "payable": false,
      "stateMutability": "view",
      "type": "function"
    },
    {
      "constant": true,
      "inputs": [],
      "name": "minStakingTime",
      "outputs": [
        {
          "name": "",
          "type": "uint256"
        }
      ],
      "payable": false,
      "stateMutability": "view",
      "type": "function"
    },
    {
      "constant": true,
      "inputs": [],
      "name": "nextDelayedSetStake",
      "outputs": [
        {
          "name": "",
          "type": "uint256"
        }
      ],
      "payable": false,
      "stateMutability": "view",
      "type": "function"
    },
    {
      "constant": true,
      "inputs": [],
      "name": "pinakion",
      "outputs": [
        {
          "name": "",
          "type": "address"
        }
      ],
      "payable": false,
      "stateMutability": "view",
      "type": "function"
    },
    {
      "inputs": [
        {
          "name": "_governor",
          "type": "address"
        },
        {
          "name": "_pinakion",
          "type": "address"
        },
        {
          "name": "_RNGenerator",
          "type": "address"
        },
        {
          "name": "_minStakingTime",
          "type": "uint256"
        },
        {
          "name": "_maxDrawingTime",
          "type": "uint256"
        },
        {
          "name": "_hiddenVotes",
          "type": "bool"
        },
        {
          "name": "_minStake",
          "type": "uint256"
        },
        {
          "name": "_alpha",
          "type": "uint256"
        },
        {
          "name": "_jurorFee",
          "type": "uint256"
        },
        {
          "name": "_jurorsForJump",
          "type": "uint256"
        },
        {
          "name": "_timesPerPeriod",
          "type": "uint256[4]"
        },
        {
          "name": "_sortitionSumTreeK",
          "type": "uint256"
        }
      ],
      "payable": false,
      "stateMutability": "nonpayable",
      "type": "constructor"
    },
    {
      "anonymous": false,
      "inputs": [
        {
          "indexed": false,
          "name": "_phase",
          "type": "uint8"
        }
      ],
      "name": "NewPhase",
      "type": "event"
    },
    {
      "anonymous": false,
      "inputs": [
        {
          "indexed": true,
          "name": "_disputeID",
          "type": "uint256"
        },
        {
          "indexed": false,
          "name": "_period",
          "type": "uint8"
        }
      ],
      "name": "NewPeriod",
      "type": "event"
    },
    {
      "anonymous": false,
      "inputs": [
        {
          "indexed": true,
          "name": "_address",
          "type": "address"
        },
        {
          "indexed": false,
          "name": "_subcourtID",
          "type": "uint256"
        },
        {
          "indexed": false,
          "name": "_stake",
          "type": "uint256"
        },
        {
          "indexed": false,
          "name": "_newTotalStake",
          "type": "uint256"
        }
      ],
      "name": "StakeSet",
      "type": "event"
    },
    {
      "anonymous": false,
      "inputs": [
        {
          "indexed": true,
          "name": "_address",
          "type": "address"
        },
        {
          "indexed": true,
          "name": "_disputeID",
          "type": "uint256"
        },
        {
          "indexed": false,
          "name": "_voteID",
          "type": "uint256"
        }
      ],
      "name": "Draw",
      "type": "event"
    },
    {
      "anonymous": false,
      "inputs": [
        {
          "indexed": true,
          "name": "_address",
          "type": "address"
        },
        {
          "indexed": true,
          "name": "_disputeID",
          "type": "uint256"
        },
        {
          "indexed": false,
          "name": "_tokenAmount",
          "type": "int256"
        },
        {
          "indexed": false,
          "name": "_ETHAmount",
          "type": "int256"
        }
      ],
      "name": "TokenAndETHShift",
      "type": "event"
    },
    {
      "anonymous": false,
      "inputs": [
        {
          "indexed": false,
          "name": "_disputeID",
          "type": "uint256"
        }
      ],
      "name": "AppealPossible",
      "type": "event"
    },
    {
      "anonymous": false,
      "inputs": [
        {
          "indexed": true,
          "name": "_disputeID",
          "type": "uint256"
        },
        {
          "indexed": false,
          "name": "_arbitrable",
          "type": "address"
        }
      ],
      "name": "DisputeCreation",
      "type": "event"
    },
    {
      "anonymous": false,
      "inputs": [
        {
          "indexed": true,
          "name": "_disputeID",
          "type": "uint256"
        },
        {
          "indexed": false,
          "name": "_arbitrable",
          "type": "address"
        }
      ],
      "name": "AppealDecision",
      "type": "event"
    },
    {
      "constant": false,
      "inputs": [
        {
          "name": "_destination",
          "type": "address"
        },
        {
          "name": "_amount",
          "type": "uint256"
        },
        {
          "name": "_data",
          "type": "bytes"
        }
      ],
      "name": "executeGovernorProposal",
      "outputs": [],
      "payable": false,
      "stateMutability": "nonpayable",
      "type": "function"
    },
    {
      "constant": false,
      "inputs": [
        {
          "name": "_governor",
          "type": "address"
        }
      ],
      "name": "changeGovernor",
      "outputs": [],
      "payable": false,
      "stateMutability": "nonpayable",
      "type": "function"
    },
    {
      "constant": false,
      "inputs": [
        {
          "name": "_pinakion",
          "type": "address"
        }
      ],
      "name": "changePinakion",
      "outputs": [],
      "payable": false,
      "stateMutability": "nonpayable",
      "type": "function"
    },
    {
      "constant": false,
      "inputs": [
        {
          "name": "_RNGenerator",
          "type": "address"
        }
      ],
      "name": "changeRNGenerator",
      "outputs": [],
      "payable": false,
      "stateMutability": "nonpayable",
      "type": "function"
    },
    {
      "constant": false,
      "inputs": [
        {
          "name": "_minStakingTime",
          "type": "uint256"
        }
      ],
      "name": "changeMinStakingTime",
      "outputs": [],
      "payable": false,
      "stateMutability": "nonpayable",
      "type": "function"
    },
    {
      "constant": false,
      "inputs": [
        {
          "name": "_maxDrawingTime",
          "type": "uint256"
        }
      ],
      "name": "changeMaxDrawingTime",
      "outputs": [],
      "payable": false,
      "stateMutability": "nonpayable",
      "type": "function"
    },
    {
      "constant": false,
      "inputs": [
        {
          "name": "_parent",
          "type": "uint96"
        },
        {
          "name": "_hiddenVotes",
          "type": "bool"
        },
        {
          "name": "_minStake",
          "type": "uint256"
        },
        {
          "name": "_alpha",
          "type": "uint256"
        },
        {
          "name": "_jurorFee",
          "type": "uint256"
        },
        {
          "name": "_jurorsForJump",
          "type": "uint256"
        },
        {
          "name": "_timesPerPeriod",
          "type": "uint256[4]"
        },
        {
          "name": "_sortitionSumTreeK",
          "type": "uint256"
        }
      ],
      "name": "createSubcourt",
      "outputs": [],
      "payable": false,
      "stateMutability": "nonpayable",
      "type": "function"
    },
    {
      "constant": false,
      "inputs": [
        {
          "name": "_subcourtID",
          "type": "uint96"
        },
        {
          "name": "_hiddenVotes",
          "type": "bool"
        }
      ],
      "name": "changeSubcourtHiddenVotes",
      "outputs": [],
      "payable": false,
      "stateMutability": "nonpayable",
      "type": "function"
    },
    {
      "constant": false,
      "inputs": [
        {
          "name": "_subcourtID",
          "type": "uint96"
        },
        {
          "name": "_minStake",
          "type": "uint256"
        }
      ],
      "name": "changeSubcourtMinStake",
      "outputs": [],
      "payable": false,
      "stateMutability": "nonpayable",
      "type": "function"
    },
    {
      "constant": false,
      "inputs": [
        {
          "name": "_subcourtID",
          "type": "uint96"
        },
        {
          "name": "_alpha",
          "type": "uint256"
        }
      ],
      "name": "changeSubcourtAlpha",
      "outputs": [],
      "payable": false,
      "stateMutability": "nonpayable",
      "type": "function"
    },
    {
      "constant": false,
      "inputs": [
        {
          "name": "_subcourtID",
          "type": "uint96"
        },
        {
          "name": "_jurorFee",
          "type": "uint256"
        }
      ],
      "name": "changeSubcourtJurorFee",
      "outputs": [],
      "payable": false,
      "stateMutability": "nonpayable",
      "type": "function"
    },
    {
      "constant": false,
      "inputs": [
        {
          "name": "_subcourtID",
          "type": "uint96"
        },
        {
          "name": "_jurorsForJump",
          "type": "uint256"
        }
      ],
      "name": "changeSubcourtJurorsForJump",
      "outputs": [],
      "payable": false,
      "stateMutability": "nonpayable",
      "type": "function"
    },
    {
      "constant": false,
      "inputs": [
        {
          "name": "_subcourtID",
          "type": "uint96"
        },
        {
          "name": "_timesPerPeriod",
          "type": "uint256[4]"
        }
      ],
      "name": "changeSubcourtTimesPerPeriod",
      "outputs": [],
      "payable": false,
      "stateMutability": "nonpayable",
      "type": "function"
    },
    {
      "constant": false,
      "inputs": [],
      "name": "passPhase",
      "outputs": [],
      "payable": false,
      "stateMutability": "nonpayable",
      "type": "function"
    },
    {
      "constant": false,
      "inputs": [
        {
          "name": "_disputeID",
          "type": "uint256"
        }
      ],
      "name": "passPeriod",
      "outputs": [],
      "payable": false,
      "stateMutability": "nonpayable",
      "type": "function"
    },
    {
      "constant": false,
      "inputs": [
        {
          "name": "_subcourtID",
          "type": "uint96"
        },
        {
          "name": "_stake",
          "type": "uint128"
        }
      ],
      "name": "setStake",
      "outputs": [],
      "payable": false,
      "stateMutability": "nonpayable",
      "type": "function"
    },
    {
      "constant": false,
      "inputs": [
        {
          "name": "_iterations",
          "type": "uint256"
        }
      ],
      "name": "executeDelayedSetStakes",
      "outputs": [],
      "payable": false,
      "stateMutability": "nonpayable",
      "type": "function"
    },
    {
      "constant": false,
      "inputs": [
        {
          "name": "_disputeID",
          "type": "uint256"
        },
        {
          "name": "_iterations",
          "type": "uint256"
        }
      ],
      "name": "drawVotes",
      "outputs": [],
      "payable": false,
      "stateMutability": "nonpayable",
      "type": "function"
    },
    {
      "constant": false,
      "inputs": [
        {
          "name": "_disputeID",
          "type": "uint256"
        },
        {
          "name": "_voteIDs",
          "type": "uint256[]"
        },
        {
          "name": "_commits",
          "type": "bytes32[]"
        }
      ],
      "name": "commit",
      "outputs": [],
      "payable": false,
      "stateMutability": "nonpayable",
      "type": "function"
    },
    {
      "constant": false,
      "inputs": [
        {
          "name": "_disputeID",
          "type": "uint256"
        },
        {
          "name": "_voteIDs",
          "type": "uint256[]"
        },
        {
          "name": "_choice",
          "type": "uint256"
        },
        {
          "name": "_salts",
          "type": "uint256[]"
        }
      ],
      "name": "vote",
      "outputs": [],
      "payable": false,
      "stateMutability": "nonpayable",
      "type": "function"
    },
    {
      "constant": false,
      "inputs": [
        {
          "name": "_disputeID",
          "type": "uint256"
        },
        {
          "name": "_appeal",
          "type": "uint256"
        },
        {
          "name": "_iterations",
          "type": "uint256"
        }
      ],
      "name": "execute",
      "outputs": [],
      "payable": false,
      "stateMutability": "nonpayable",
      "type": "function"
    },
    {
      "constant": false,
      "inputs": [
        {
          "name": "_disputeID",
          "type": "uint256"
        }
      ],
      "name": "executeRuling",
      "outputs": [],
      "payable": false,
      "stateMutability": "nonpayable",
      "type": "function"
    },
    {
      "constant": true,
      "inputs": [
        {
          "name": "_subcourtID",
          "type": "uint96"
        }
      ],
      "name": "getSubcourt",
      "outputs": [
        {
          "name": "parent",
          "type": "uint96"
        },
        {
          "name": "children",
          "type": "uint256[]"
        },
        {
          "name": "hiddenVotes",
          "type": "bool"
        },
        {
          "name": "minStake",
          "type": "uint256"
        },
        {
          "name": "alpha",
          "type": "uint256"
        },
        {
          "name": "jurorFee",
          "type": "uint256"
        },
        {
          "name": "jurorsForJump",
          "type": "uint256"
        },
        {
          "name": "timesPerPeriod",
          "type": "uint256[4]"
        }
      ],
      "payable": false,
      "stateMutability": "view",
      "type": "function"
    },
    {
      "constant": true,
      "inputs": [
        {
          "name": "_disputeID",
          "type": "uint256"
        },
        {
          "name": "_appeal",
          "type": "uint256"
        },
        {
          "name": "_voteID",
          "type": "uint256"
        }
      ],
      "name": "getVote",
      "outputs": [
        {
          "name": "account",
          "type": "address"
        },
        {
          "name": "commit",
          "type": "bytes32"
        },
        {
          "name": "choice",
          "type": "uint256"
        },
        {
          "name": "voted",
          "type": "bool"
        }
      ],
      "payable": false,
      "stateMutability": "view",
      "type": "function"
    },
    {
      "constant": true,
      "inputs": [
        {
          "name": "_disputeID",
          "type": "uint256"
        },
        {
          "name": "_appeal",
          "type": "uint256"
        }
      ],
      "name": "getVoteCounter",
      "outputs": [
        {
          "name": "winningChoice",
          "type": "uint256"
        },
        {
          "name": "counts",
          "type": "uint256[]"
        },
        {
          "name": "tied",
          "type": "bool"
        }
      ],
      "payable": false,
      "stateMutability": "view",
      "type": "function"
    },
    {
      "constant": true,
      "inputs": [
        {
          "name": "_disputeID",
          "type": "uint256"
        }
      ],
      "name": "getDispute",
      "outputs": [
        {
          "name": "jurorAtStake",
          "type": "uint256[]"
        },
        {
          "name": "totalJurorFees",
          "type": "uint256[]"
        },
        {
          "name": "repartitionsPerRound",
          "type": "uint256[]"
        },
        {
          "name": "penaltiesPerRound",
          "type": "uint256[]"
        },
        {
          "name": "tokenRewardPerRound",
          "type": "uint256[]"
        },
        {
          "name": "ETHRewardPerRound",
          "type": "uint256[]"
        }
      ],
      "payable": false,
      "stateMutability": "view",
      "type": "function"
    },
    {
      "constant": true,
      "inputs": [
        {
          "name": "_jurorID",
          "type": "address"
        }
      ],
      "name": "getJuror",
      "outputs": [
        {
          "name": "subcourtIDs",
          "type": "uint96[]"
        },
        {
          "name": "stakedTokens",
          "type": "uint256"
        },
        {
          "name": "lockedTokens",
          "type": "uint256"
        }
      ],
      "payable": false,
      "stateMutability": "view",
      "type": "function"
    },
    {
      "constant": false,
      "inputs": [
        {
          "name": "_numberOfChoices",
          "type": "uint256"
        },
        {
          "name": "_extraData",
          "type": "bytes"
        }
      ],
      "name": "createDispute",
      "outputs": [
        {
          "name": "disputeID",
          "type": "uint256"
        }
      ],
      "payable": true,
      "stateMutability": "payable",
      "type": "function"
    },
    {
      "constant": false,
      "inputs": [
        {
          "name": "_disputeID",
          "type": "uint256"
        },
        {
          "name": "_extraData",
          "type": "bytes"
        }
      ],
      "name": "appeal",
      "outputs": [],
      "payable": true,
      "stateMutability": "payable",
      "type": "function"
    },
    {
      "constant": false,
      "inputs": [
        {
          "name": "_owner",
          "type": "address"
        }
      ],
      "name": "proxyPayment",
      "outputs": [
        {
          "name": "allowed",
          "type": "bool"
        }
      ],
      "payable": true,
      "stateMutability": "payable",
      "type": "function"
    },
    {
      "constant": false,
      "inputs": [
        {
          "name": "_from",
          "type": "address"
        },
        {
          "name": "_to",
          "type": "address"
        },
        {
          "name": "_amount",
          "type": "uint256"
        }
      ],
      "name": "onTransfer",
      "outputs": [
        {
          "name": "allowed",
          "type": "bool"
        }
      ],
      "payable": false,
      "stateMutability": "nonpayable",
      "type": "function"
    },
    {
      "constant": false,
      "inputs": [
        {
          "name": "_owner",
          "type": "address"
        },
        {
          "name": "_spender",
          "type": "address"
        },
        {
          "name": "_amount",
          "type": "uint256"
        }
      ],
      "name": "onApprove",
      "outputs": [
        {
          "name": "allowed",
          "type": "bool"
        }
      ],
      "payable": false,
      "stateMutability": "nonpayable",
      "type": "function"
    },
    {
      "constant": true,
      "inputs": [
        {
          "name": "_extraData",
          "type": "bytes"
        }
      ],
      "name": "arbitrationCost",
      "outputs": [
        {
          "name": "cost",
          "type": "uint256"
        }
      ],
      "payable": false,
      "stateMutability": "view",
      "type": "function"
    },
    {
      "constant": true,
      "inputs": [
        {
          "name": "_disputeID",
          "type": "uint256"
        },
        {
          "name": "_extraData",
          "type": "bytes"
        }
      ],
      "name": "appealCost",
      "outputs": [
        {
          "name": "cost",
          "type": "uint256"
        }
      ],
      "payable": false,
      "stateMutability": "view",
      "type": "function"
    },
    {
      "constant": true,
      "inputs": [
        {
          "name": "_disputeID",
          "type": "uint256"
        }
      ],
      "name": "disputeStatus",
      "outputs": [
        {
          "name": "status",
          "type": "uint8"
        }
      ],
      "payable": false,
      "stateMutability": "view",
      "type": "function"
    },
    {
      "constant": true,
      "inputs": [
        {
          "name": "_disputeID",
          "type": "uint256"
        }
      ],
      "name": "currentRuling",
      "outputs": [
        {
          "name": "ruling",
          "type": "uint256"
        }
      ],
      "payable": false,
      "stateMutability": "view",
      "type": "function"
    }
  ],
  "bytecode": "0x60806040526001600c553480156200001657600080fd5b506040516101e080620062be83398101806040528101908080519060200190929190805190602001909291908051906020019092919080519060200190929190805190602001909291908051906020019092919080519060200190929190805190602001909291908051906020019092919080519060200190929190919082608001805190602001909291905050508b600160006101000a815481600160a060020a030219169083600160a060020a031602179055508a600260006101000a815481600160a060020a030219169083600160a060020a0316021790555089600360006101000a815481600160a060020a030219169083600160a060020a03160217905550886008819055508760098190555042600481905550600a6101006040519081016040528060006001606060020a0316815260200160006040519080825280602002602001820160405280156200017a578160200160208202803883390190505b508152891515602080830191909152604082018a9052606082018990526080820188905260a0820187905260c0909101859052825460018082018086556000958652948390208451600b9093020180546001606060020a0319166001606060020a039093169290921782558383015180519293620001ff9392850192910190620003bd565b50604082015160028201805460ff191691151591909117905560608201516003820155608082015160048083019190915560a0830151600583015560c0830151600683015560e08301516200025a916007840191906200040d565b505050506200027d6000600102826200028f640100000000026401000000009004565b50505050505050505050505062000489565b60008281526020819052604090208054156200030c57604080517f08c379a000000000000000000000000000000000000000000000000000000000815260206004820152601460248201527f5472656520616c7265616479206578697374732e000000000000000000000000604482015290519081900360640190fd5b600182116200037c57604080517f08c379a000000000000000000000000000000000000000000000000000000000815260206004820152601b60248201527f4b206d7573742062652067726561746572207468616e206f6e652e0000000000604482015290519081900360640190fd5b81815560006200039060018301826200043d565b506000620003a260028301826200043d565b50600201805460018101825560009182526020822001555050565b828054828255906000526020600020908101928215620003fb579160200282015b82811115620003fb578251825591602001919060010190620003de565b506200040992915062000469565b5090565b8260048101928215620003fb5791602002820182811115620003fb578251825591602001919060010190620003de565b81548183558181111562000464576000838152602090206200046491810190830162000469565b505050565b6200048691905b8082111562000409576000815560010162000470565b90565b615e2580620004996000396000f30060806040526004361061027b5763ffffffff7c0100000000000000000000000000000000000000000000000000000000600035041662f5822c8114610280578063023d44df146102a357806303432744146102ca5780630b274f2e146102df5780630c340a24146102f45780630d44cf791461032557806310f169e81461033a578063115d5376146103765780631b92bbbe1461038e5780631c3db16d146103a35780631f5a0dd2146103bb5780632d29a47b146104105780632ea7b4d01461042e5780633e1d09be1461044357806340026c871461046757806349912f88146105485780634a39314914610599578063564a565d146105d7578063572603641461065f57806359354c77146106825780635bc24dd3146106a65780635e4a627d146106ca578063605cbb72146106df5780636a4f8f39146107135780637147508d14610728578063751accd014610758578063823cfd7014610789578063840bc19c146107a157806385c855f3146107b65780638bb04875146107ec5780638ce7ff4a1461080457806396d92a72146108545780639929057b14610875578063a079e73f1461088d578063a57366e7146108b3578063b1c9fe6e146108d7578063b36fec0c146108ec578063b78a80ff14610907578063b888adfa1461094f578063c057eca714610964578063c108f3b414610979578063c13517e11461098e578063ce9e7730146109df578063d4155d1f14610a17578063da682aeb14610a9a578063dd5e5cb514610ac4578063e3a96cbd14610adc578063e3b0073e14610ca1578063e4c0aaf414610d0b578063f23f16e614610d2c578063f48c305414610d8a578063f7434ea914610d9e578063fbf405b014610df7575b600080fd5b34801561028c57600080fd5b506102a1600160a060020a0360043516610e0c565b005b3480156102af57600080fd5b506102b8610e9a565b60408051918252519081900360200190f35b3480156102d657600080fd5b506102b8610ea0565b3480156102eb57600080fd5b506102a1610ea6565b34801561030057600080fd5b5061030961130d565b60408051600160a060020a039092168252519081900360200190f35b34801561033157600080fd5b506102b861131c565b34801561034657600080fd5b50610352600435611322565b6040518082600281111561036257fe5b60ff16815260200191505060405180910390f35b34801561038257600080fd5b506102a1600435611399565b34801561039a57600080fd5b506102b8611a57565b3480156103af57600080fd5b506102b8600435611a5d565b3480156103c757600080fd5b506103d3600435611ae7565b604080516001606060020a0390971687529415156020870152858501939093526060850191909152608084015260a0830152519081900360c00190f35b34801561041c57600080fd5b506102a1600435602435604435611b39565b34801561043a57600080fd5b506102b8612384565b34801561044f57600080fd5b506102a16001606060020a036004351660243561238a565b34801561047357600080fd5b506104886001606060020a036004351661241b565b60405180896001606060020a03166001606060020a03168152602001806020018815151515815260200187815260200186815260200185815260200184815260200183600460200280838360005b838110156104ee5781810151838201526020016104d6565b50505050905001828103825289818151815260200191508051906020019060200280838360005b8381101561052d578181015183820152602001610515565b50505050905001995050505050505050505060405180910390f35b60408051602060046024803582810135601f81018590048502860185019096528585526102a195833595369560449491939091019190819084018382808284375094975061253c9650505050505050565b3480156105a557600080fd5b506105c3600160a060020a03600435811690602435166044356128ce565b604080519115158252519081900360200190f35b3480156105e357600080fd5b506105ef600435612b07565b604080516001606060020a038b168152600160a060020a038a1660208201529081018890526060810187600481111561062457fe5b60ff16815260208101969096525060408086019490945260608501929092526080840152151560a0830152519081900360c001945092505050f35b34801561066b57600080fd5b506102a16001606060020a03600435166024612b84565b34801561068e57600080fd5b506102a16001606060020a0360043516602435612c20565b3480156106b257600080fd5b506102a16001606060020a0360043516602435612cb1565b3480156106d657600080fd5b506102b8612d42565b3480156106eb57600080fd5b506102a160048035906024803580820192908101359160443591606435918201910135612d48565b34801561071f57600080fd5b50610309613313565b34801561073457600080fd5b506102a1600480359060248035808201929081013591604435908101910135613322565b34801561076457600080fd5b506102a160048035600160a060020a03169060248035916044359182019101356135b2565b34801561079557600080fd5b506102a1600435613648565b3480156107ad57600080fd5b506102b86136ac565b3480156107c257600080fd5b506102a16001606060020a03600435166fffffffffffffffffffffffffffffffff602435166136d0565b3480156107f857600080fd5b506102a16004356136f1565b34801561081057600080fd5b506108226004356024356044356138f2565b60408051600160a060020a03909516855260208501939093528383019190915215156060830152519081900360800190f35b34801561086057600080fd5b506102a1600160a060020a036004351661397f565b34801561088157600080fd5b506102a1600435613a0d565b34801561089957600080fd5b506102a16001606060020a03600435166024351515613b20565b3480156108bf57600080fd5b506102a16001606060020a0360043516602435613bbe565b3480156108e357600080fd5b50610352613c4f565b3480156108f857600080fd5b506102a1600435602435613c5f565b34801561091357600080fd5b5061091f600435613f51565b60408051600160a060020a0390941684526001606060020a03909216602084015282820152519081900360600190f35b34801561095b57600080fd5b506102b8613f86565b34801561097057600080fd5b506102b8613f8c565b34801561098557600080fd5b506102b8613f92565b60408051602060046024803582810135601f81018590048502860185019096528585526102b8958335953695604494919390910191908190840183828082843750949750613f989650505050505050565b3480156109eb57600080fd5b506102a16001606060020a0360043516602435151560443560643560843560a43560c461014435614253565b348015610a2357600080fd5b50610a38600160a060020a036004351661459c565b6040518080602001848152602001838152602001828103825285818151815260200191508051906020019060200280838360005b83811015610a84578181015183820152602001610a6c565b5050505090500194505050505060405180910390f35b348015610aa657600080fd5b506105c3600160a060020a036004358116906024351660443561464f565b348015610ad057600080fd5b506102a1600435614658565b348015610ae857600080fd5b50610af46004356146bc565b6040518080602001806020018060200180602001806020018060200187810387528d818151815260200191508051906020019060200280838360005b83811015610b48578181015183820152602001610b30565b5050505090500187810386528c818151815260200191508051906020019060200280838360005b83811015610b87578181015183820152602001610b6f565b5050505090500187810385528b818151815260200191508051906020019060200280838360005b83811015610bc6578181015183820152602001610bae565b5050505090500187810384528a818151815260200191508051906020019060200280838360005b83811015610c05578181015183820152602001610bed565b50505050905001878103835289818151815260200191508051906020019060200280838360005b83811015610c44578181015183820152602001610c2c565b50505050905001878103825288818151815260200191508051906020019060200280838360005b83811015610c83578181015183820152602001610c6b565b505050509050019c5050505050505050505050505060405180910390f35b348015610cad57600080fd5b50610cbc6004356024356148d4565b6040518084815260200180602001831515151581526020018281038252848181518152602001915080519060200190602002808383600083811015610a84578181015183820152602001610a6c565b348015610d1757600080fd5b506102a1600160a060020a0360043516614988565b348015610d3857600080fd5b5060408051602060046024803582810135601f81018590048502860185019096528585526102b8958335953695604494919390910191908190840183828082843750949750614a169650505050505050565b6105c3600160a060020a0360043516614b6c565b348015610daa57600080fd5b506040805160206004803580820135601f81018490048402850184019095528484526102b8943694929360249392840191908190840183828082843750949750614b729650505050505050565b348015610e0357600080fd5b50610309614bb2565b600154600160a060020a03163314610e6b576040805160e560020a62461bcd0281526020600482015260236024820152600080516020615dba833981519152604482015260e960020a6237b91702606482015290519081900360840190fd5b6002805473ffffffffffffffffffffffffffffffffffffffff1916600160a060020a0392909216919091179055565b60065481565b60055481565b600060035460a060020a900460ff166002811115610ec057fe5b14156110825760085460045442031015610f4a576040805160e560020a62461bcd02815260206004820152602c60248201527f546865206d696e696d756d207374616b696e672074696d6520686173206e6f7460448201527f20706173736564207965742e0000000000000000000000000000000000000000606482015290519081900360840190fd5b600554600010610fca576040805160e560020a62461bcd02815260206004820152602760248201527f546865726520617265206e6f2064697370757465732074686174206e6565642060448201527f6a75726f72732e00000000000000000000000000000000000000000000000000606482015290519081900360840190fd5b600143016006819055600354604080517f7b9c34e0000000000000000000000000000000000000000000000000000000008152600481019390935251600160a060020a0390911691637b9c34e091602480830192600092919082900301818387803b15801561103857600080fd5b505af115801561104c573d6000803e3d6000fd5b5050600380546001935090915074ff0000000000000000000000000000000000000000191660a060020a835b02179055506112b4565b600160035460a060020a900460ff16600281111561109c57fe5b14156111be57600354600654604080517f1c73601e000000000000000000000000000000000000000000000000000000008152600481019290925251600160a060020a0390921691631c73601e916024808201926020929091908290030181600087803b15801561110c57600080fd5b505af1158015611120573d6000803e3d6000fd5b505050506040513d602081101561113657600080fd5b505160078190551515611193576040805160e560020a62461bcd02815260206004820152601f60248201527f52616e646f6d206e756d626572206973206e6f74207265616479207965742e00604482015290519081900360640190fd5b600380546002919074ff0000000000000000000000000000000000000000191660a060020a83611078565b600260035460a060020a900460ff1660028111156111d857fe5b14156112b45760055415806111f35750600954600454420310155b1515611295576040805160e560020a62461bcd02815260206004820152605860248201527f546865726520617265207374696c6c20646973707574657320776974686f757460448201527f206a75726f727320616e6420746865206d6178696d756d2064726177696e672060648201527f74696d6520686173206e6f7420706173736564207965742e0000000000000000608482015290519081900360a40190fd5b6003805474ff0000000000000000000000000000000000000000191690555b426004556003546040517f31f72b44f546d9e7eaec13f65636997665e15f134a81c82924f568f5c0d07b939160a060020a900460ff1690808260028111156112f857fe5b60ff16815260200191505060405180910390a1565b600154600160a060020a031681565b600d5481565b600080600e8381548110151561133457fe5b60009182526020909120600f9091020190506003600282015460ff16600481111561135b57fe5b101561136a5760009150611393565b6004600282015460ff16600481111561137f57fe5b101561138e5760019150611393565b600291505b50919050565b6000600e828154811015156113aa57fe5b600091825260208220600f909102019150600282015460ff1660048111156113ce57fe5b14156115ac578054600a805490916001606060020a03169081106113ee57fe5b90600052602060002090600b02016007018160020160009054906101000a900460ff16600481111561141c57fe5b6004811061142657fe5b01546003820154420310156114ab576040805160e560020a62461bcd02815260206004820152602c60248201527f5468652065766964656e636520706572696f642074696d6520686173206e6f7460448201527f20706173736564207965742e0000000000000000000000000000000000000000606482015290519081900360840190fd5b60048101805460001981019081106114bf57fe5b60009182526020909120015460088201541461154b576040805160e560020a62461bcd02815260206004820152602960248201527f546865206469737075746520686173206e6f742066696e69736865642064726160448201527f77696e67207965742e0000000000000000000000000000000000000000000000606482015290519081900360840190fd5b8054600a805490916001606060020a031690811061156557fe5b600091825260209091206002600b90920201015460ff1661158757600261158a565b60015b60028201805460ff191660018360048111156115a257fe5b02179055506119fb565b6001600282015460ff1660048111156115c157fe5b1415611706578054600a805490916001606060020a03169081106115e157fe5b90600052602060002090600b02016007018160020160009054906101000a900460ff16600481111561160f57fe5b6004811061161957fe5b0154816003015442031015806116515750600481018054600019810190811061163e57fe5b6000918252602090912001546009820154145b15156116f3576040805160e560020a62461bcd02815260206004820152605060248201527f54686520636f6d6d697420706572696f642074696d6520686173206e6f74207060448201527f61737365642079657420616e64206e6f74206576657279206a75726f7220686160648201527f7320636f6d6d6974746564207965742e00000000000000000000000000000000608482015290519081900360a40190fd5b6002818101805460ff19166001836115a2565b60028082015460ff16600481111561171a57fe5b1415611862578054600a805490916001606060020a031690811061173a57fe5b90600052602060002090600b02016007018160020160009054906101000a900460ff16600481111561176857fe5b6004811061177257fe5b0154816003015442031015806117aa5750600481018054600019810190811061179757fe5b600091825260209091200154600a820154145b151561184c576040805160e560020a62461bcd02815260206004820152604a60248201527f54686520766f746520706572696f642074696d6520686173206e6f742070617360448201527f7365642079657420616e64206e6f74206576657279206a75726f72206861732060648201527f766f746564207965742e00000000000000000000000000000000000000000000608482015290519081900360a40190fd5b6002810180546003919060ff19166001836115a2565b6003600282015460ff16600481111561187757fe5b141561196a578054600a805490916001606060020a031690811061189757fe5b90600052602060002090600b02016007018160020160009054906101000a900460ff1660048111156118c557fe5b600481106118cf57fe5b0154600382015442031015611954576040805160e560020a62461bcd02815260206004820152602a60248201527f5468652061707065616c20706572696f642074696d6520686173206e6f74207060448201527f6173736564207965742e00000000000000000000000000000000000000000000606482015290519081900360840190fd5b6002810180546004919060ff19166001836115a2565b6004600282015460ff16600481111561197f57fe5b14156119fb576040805160e560020a62461bcd02815260206004820152602a60248201527f546865206469737075746520697320616c726561647920696e20746865206c6160448201527f737420706572696f642e00000000000000000000000000000000000000000000606482015290519081900360840190fd5b426003820155600281015460405183917f4e6f5cf43b95303e86aee81683df63992061723a829ee012db21dad388756b919160ff9091169080826004811115611a4057fe5b60ff16815260200191505060405180910390a25050565b60095481565b600080600e83815481101515611a6f57fe5b60009182526020909120600f90910201600581018054919250906000198101908110611a9757fe5b600091825260209091206002600390920201015460ff16611add576005810180546000198101908110611ac657fe5b906000526020600020906003020160000154611ae0565b60005b9392505050565b600a805482908110611af557fe5b60009182526020909120600b90910201805460028201546003830154600484015460058501546006909501546001606060020a03909416955060ff90921693909286565b60008080808080808080808c600480600e805484908110611b5657fe5b600091825260209091206002600f90920201015460ff166004811115611b7857fe5b14611bbb576040805160e560020a62461bcd0281526020600482015260116024820152600080516020615dda833981519152604482015290519081900360640190fd5b600e8f815481101515611bca57fe5b60009182526020909120600f90910201600581018054919d50906000198101908110611bf257fe5b9060005260206000209060030201600001549a508b600b018e815481101515611c1757fe5b906000526020600020015499508c8a0198508b6004018e815481101515611c3a57fe5b600091825260209091200154600202891115611c725760048c0180548f908110611c6057fe5b60009182526020909120015460020298505b8997505b888810156123735760048c0180548f908110611c8e57fe5b906000526020600020018c6004018f815481101515611ca957fe5b60009182526020909120015489811515611cbf57fe5b06815481101515611ccc57fe5b906000526020600020906004020196508a87600201541480611d15575060058c0180546000198101908110611cfd57fe5b600091825260209091206002600390920201015460ff165b15611ef35760048c0180548f908110611d2a57fe5b6000918252602090912001548810611eee57600d8c0180548f908110611d4c57fe5b600091825260208220600290910201015495508b600d018e815481101515611d7057fe5b60009182526020909120600290910201600101546002548854604080517fa9059cbb000000000000000000000000000000000000000000000000000000008152600160a060020a039283166004820152602481018b9052905193985091169163a9059cbb916044808201926020929091908290030181600087803b158015611df757600080fd5b505af1158015611e0b573d6000803e3d6000fd5b505050506040513d6020811015611e2157600080fd5b50508654604051600160a060020a039091169086156108fc029087906000818181858888f19350505050508e8760000160009054906101000a9004600160a060020a0316600160a060020a03167f24f45c2b08bbde8c837d70b67991ccb7660537cf749de21a940ae4858b681e198888604051808381526020018281526020019250505060405180910390a360068c0180548f908110611ebd57fe5b60009182526020808320909101548954600160a060020a03168352600f909152604090912060020180549190910390555b61230d565b60048c0180548f908110611f0357fe5b60009182526020909120015488101561230d5760025487546040805160e060020a6370a08231028152600160a060020a039283166004820152905191909216916370a082319160248083019260209291908290030181600087803b158015611f6a57600080fd5b505af1158015611f7e573d6000803e3d6000fd5b505050506040513d6020811015611f9457600080fd5b81019080805190602001909291905050508c6006018f815481101515611fb657fe5b906000526020600020015411611fe65760068c0180548f908110611fd657fe5b9060005260206000200154612067565b60025487546040805160e060020a6370a08231028152600160a060020a039283166004820152905191909216916370a082319160248083019260209291908290030181600087803b15801561203a57600080fd5b505af115801561204e573d6000803e3d6000fd5b505050506040513d602081101561206457600080fd5b50515b6002548854604080517f23b872dd000000000000000000000000000000000000000000000000000000008152600160a060020a0392831660048201523060248201526044810185905290519397509116916323b872dd916064808201926020929091908290030181600087803b1580156120e057600080fd5b505af11580156120f4573d6000803e3d6000fd5b505050506040513d602081101561210a57600080fd5b8101908080519060200190929190505050508e8760000160009054906101000a9004600160a060020a0316600160a060020a03167f24f45c2b08bbde8c837d70b67991ccb7660537cf749de21a940ae4858b681e19866000036000604051808381526020018281526020019250505060405180910390a3838c600c018f81548110151561219357fe5b60009182526020909120018054909101905560068c0180548f9081106121b557fe5b60009182526020808320909101548954600160a060020a039081168452600f8352604080852060029081018054949094039093558b548216808652818620600101549354825160e060020a6370a0823102815260048101929092529151939591909216936370a0823193602480850194929391928390030190829087803b15801561223f57600080fd5b505af1158015612253573d6000803e3d6000fd5b505050506040513d602081101561226957600080fd5b5051108061227c5750600387015460ff16155b1561230d57600092505b8654600160a060020a03166000908152600f602052604090205483101561230d578654600160a060020a03166000818152600f602052604090208054612302929190869081106122d257fe5b9060005260206000209060029182820401919006600c029054906101000a90046001606060020a03166000614bc1565b600190920191612286565b600b8c0180548f90811061231d57fe5b906000526020600020016000815480929190600101919050555060018c6004018f81548110151561234a57fe5b60009182526020909120015403881415612368576123688f8f6150fd565b600190970196611c76565b505050505050505050505050505050565b61271081565b600154600160a060020a031633146123e9576040805160e560020a62461bcd0281526020600482015260236024820152600080516020615dba833981519152604482015260e960020a6237b91702606482015290519081900360840190fd5b80600a836001606060020a031681548110151561240257fe5b90600052602060002090600b0201600301819055505050565b60006060600080600080600061242f615978565b6000600a8a6001606060020a031681548110151561244957fe5b6000918252602091829020600b90910201805460018201805460408051828702810187019091528181526001606060020a039093169d5092945090929091908301828280156124b757602002820191906000526020600020905b8154815260200190600101908083116124a3575b505050505097508060020160009054906101000a900460ff1696508060030154955080600401549450806005015493508060060154925080600701600480602002604051908101604052809291908260048015612529576020028201915b815481526020019060010190808311612515575b5050505050915050919395975091939597565b6000828261254a8282614a16565b34101561255657600080fd5b84600380600e80548490811061256857fe5b600091825260209091206002600f90920201015460ff16600481111561258a57fe5b146125cd576040805160e560020a62461bcd0281526020600482015260116024820152600080516020615dda833981519152604482015290519081900360640190fd5b600e8054889081106125db57fe5b60009182526020909120600f909102018054600a8054929750916001606060020a0390911690811061260957fe5b600091825260209091206006600b909202010154600486018054600019810190811061263157fe5b6000918252602090912001541061268d578454600a805490916001606060020a031690811061265c57fe5b60009182526020909120600b909102015485546bffffffffffffffffffffffff19166001606060020a039091161785555b60028501805460ff191690554260038601558454600a805490916001606060020a03169081106126b957fe5b90600052602060002090600b020160050154348115156126d557fe5b60048701805492909104916126ed8260018301615997565b815481106126f757fe5b906000526020600020018161270c91906159bb565b5084600101546001018560050186600501805480919060010161272f91906159e7565b8154811061273957fe5b9060005260206000209060030201600101816127559190615a13565b5060058501805460019190600019810190811061276e57fe5b60009182526020909120600390910201600201805460ff19169115159190911790558454600a8054600688019261271092916001606060020a039091169081106127b457fe5b600091825260209091206004600b9092020101548754600a805490916001606060020a03169081106127e257fe5b90600052602060002090600b020160030154028115156127fe57fe5b825460018181018555600094855260208086209490930493909101929092556007880180548084018255908452818420349101556008880183905560098801839055600a8801839055600b88018054808401825590845281842001839055600c8801805480840182559084529083200191909155600d860180549161288591908301615a37565b5060058054600101905560408051338152905188917f9c9b64db9e130f48381bf697abf638e73117dbfbfd7a4484f2da3ba188f4187d919081900360200190a250505050505050565b600080600160a060020a03851630148015906128f35750600160a060020a0384163014155b15612afc576002546040805160e060020a6370a08231028152600160a060020a0388811660048301529151869392909216916370a08231916024808201926020929091908290030181600087803b15801561294d57600080fd5b505af1158015612961573d6000803e3d6000fd5b505050506040513d602081101561297757600080fd5b5051600160a060020a0387166000908152600f60205260409020600101549190039150811015612a3d576040805160e560020a62461bcd02815260206004820152604260248201527f43616e6e6f74207472616e7366657220616e20616d6f756e742074686174207760448201527f6f756c64206d616b652062616c616e6365206c657373207468616e207374616b60648201527f652e000000000000000000000000000000000000000000000000000000000000608482015290519081900360a40190fd5b600160a060020a0385166000908152600f6020526040902060020154811015612afc576040805160e560020a62461bcd02815260206004820152604960248201527f43616e6e6f74207472616e7366657220616e20616d6f756e742074686174207760448201527f6f756c64206d616b652062616c616e6365206c657373207468616e206c6f636b60648201527f6564207374616b652e0000000000000000000000000000000000000000000000608482015290519081900360a40190fd5b506001949350505050565b600e805482908110612b1557fe5b60009182526020909120600f90910201805460018201546002830154600384015460088501546009860154600a870154600e909701546001606060020a03871698506c01000000000000000000000000909604600160a060020a031696949560ff948516959394929391921689565b600154600160a060020a03163314612be3576040805160e560020a62461bcd0281526020600482015260236024820152600080516020615dba833981519152604482015260e960020a6237b91702606482015290519081900360840190fd5b80600a836001606060020a0316815481101515612bfc57fe5b90600052602060002090600b0201600701906004612c1b929190615a63565b505050565b600154600160a060020a03163314612c7f576040805160e560020a62461bcd0281526020600482015260236024820152600080516020615dba833981519152604482015260e960020a6237b91702606482015290519081900360840190fd5b80600a836001606060020a0316815481101515612c9857fe5b90600052602060002090600b0201600501819055505050565b600154600160a060020a03163314612d10576040805160e560020a62461bcd0281526020600482015260236024820152600080516020615dba833981519152604482015260e960020a6237b91702606482015290519081900360840190fd5b80600a836001606060020a0316815481101515612d2957fe5b90600052602060002090600b0201600401819055505050565b60075481565b6000808088600280600e805484908110612d5e57fe5b600091825260209091206002600f90920201015460ff166004811115612d8057fe5b14612dc3576040805160e560020a62461bcd0281526020600482015260116024820152600080516020615dda833981519152604482015290519081900360640190fd5b600e80548c908110612dd157fe5b90600052602060002090600f02019450600093505b888410156131f1576004850180543391906000198101908110612e0557fe5b906000526020600020018b8b878181101515612e1d57fe5b90506020020135815481101515612e3057fe5b6000918252602090912060049091020154600160a060020a031614612e9f576040805160e560020a62461bcd02815260206004820152601f60248201527f5468652063616c6c65722068617320746f206f776e2074686520766f74652e00604482015290519081900360640190fd5b6001850154881115612f47576040805160e560020a62461bcd02815260206004820152605160248201527f5468652063686f6963652068617320746f206265206c657373207468616e206f60448201527f7220657175616c20746f20746865206e756d626572206f662063686f6963657360648201527f20666f722074686520646973707574652e000000000000000000000000000000608482015290519081900360a40190fd5b8454600a805490916001606060020a0316908110612f6157fe5b600091825260209091206002600b90920201015460ff161580613002575087878786818110612f8c57fe5b604080519485526020918202939093013590840152508051918290030190206004860180546000198101908110612fbf57fe5b906000526020600020018b8b878181101515612fd757fe5b90506020020135815481101515612fea57fe5b90600052602060002090600402016001015460001916145b151561307e576040805160e560020a62461bcd02815260206004820152602481018290527f54686520636f6d6d6974206d757374206d61746368207468652063686f69636560448201527f20696e20737562636f7572747320776974682068696464656e20766f7465732e606482015290519081900360840190fd5b600485018054600019810190811061309257fe5b906000526020600020018a8a8681811015156130aa57fe5b905060200201358154811015156130bd57fe5b600091825260209091206003600490920201015460ff1615613129576040805160e560020a62461bcd02815260206004820152601260248201527f566f746520616c726561647920636173742e0000000000000000000000000000604482015290519081900360640190fd5b600485018054899190600019810190811061314057fe5b906000526020600020018b8b87818110151561315857fe5b9050602002013581548110151561316b57fe5b60009182526020909120600491820201600201919091558501805460019190600019810190811061319857fe5b906000526020600020018b8b8781811015156131b057fe5b905060200201358154811015156131c357fe5b60009182526020909120600490910201600301805460ff191691151591909117905560019390930192612de6565b600a850180548a019055600585018054600019810190811061320f57fe5b9060005260206000209060030201925089899050836001018981548110151561323457fe5b6000918252602090912001805490910190558254600184018054909190811061325957fe5b9060005260206000200154836001018981548110151561327557fe5b906000526020600020015414156132a957600283015460ff1615156132a45760028301805460ff191660011790555b613306565b825460018401805490919081106132bc57fe5b906000526020600020015483600101898154811015156132d857fe5b9060005260206000200154111561330657878355600283015460ff16156133065760028301805460ff191690555b5050505050505050505050565b600354600160a060020a031681565b60008086600180600e80548490811061333757fe5b600091825260209091206002600f90920201015460ff16600481111561335957fe5b1461339c576040805160e560020a62461bcd0281526020600482015260116024820152600080516020615dda833981519152604482015290519081900360640190fd5b600e80548a9081106133aa57fe5b90600052602060002090600f02019350600092505b8683101561359e5760048401805433919060001981019081106133de57fe5b9060005260206000200189898681811015156133f657fe5b9050602002013581548110151561340957fe5b6000918252602090912060049091020154600160a060020a031614613478576040805160e560020a62461bcd02815260206004820152601f60248201527f5468652063616c6c65722068617320746f206f776e2074686520766f74652e00604482015290519081900360640190fd5b60048401805460009190600019810190811061349057fe5b9060005260206000200189898681811015156134a857fe5b905060200201358154811015156134bb57fe5b600091825260209091206001600490920201015414613524576040805160e560020a62461bcd02815260206004820152601c60248201527f416c726561647920636f6d6d6974746564207468697320766f74652e00000000604482015290519081900360640190fd5b85858481811061353057fe5b60048701805460209092029390930135929150600019810190811061355157fe5b90600052602060002001898986818110151561356957fe5b9050602002013581548110151561357c57fe5b60009182526020909120600160049092020181019190915592909201916133bf565b505050600901805490930190925550505050565b600154600160a060020a03163314613611576040805160e560020a62461bcd0281526020600482015260236024820152600080516020615dba833981519152604482015260e960020a6237b91702606482015290519081900360840190fd5b83600160a060020a03168383836040518083838082843782019150509250505060006040518083038185875af15050505050505050565b600154600160a060020a031633146136a7576040805160e560020a62461bcd0281526020600482015260236024820152600080516020615dba833981519152604482015260e960020a6237b91702606482015290519081900360840190fd5b600855565b7f7fffffffffffffffffffffffffffffffffffffffffffffffffffffffffffffff81565b6136ed3383836fffffffffffffffffffffffffffffffff16614bc1565b5050565b60008082600480600e80548490811061370657fe5b600091825260209091206002600f90920201015460ff16600481111561372857fe5b1461376b576040805160e560020a62461bcd0281526020600482015260116024820152600080516020615dda833981519152604482015290519081900360640190fd5b600e80548690811061377957fe5b60009182526020909120600f90910201600e81015490945060ff16156137e9576040805160e560020a62461bcd02815260206004820152601860248201527f52756c696e6720616c72656164792065786563757465642e0000000000000000604482015290519081900360640190fd5b600e8401805460ff19166001179055600584018054600019810190811061380c57fe5b600091825260209091206002600390920201015460ff1661385257600584018054600019810190811061383b57fe5b906000526020600020906003020160000154613855565b60005b8454604080517f311a6c56000000000000000000000000000000000000000000000000000000008152600481018990526024810184905290519295506c01000000000000000000000000909104600160a060020a03169163311a6c569160448082019260009290919082900301818387803b1580156138d357600080fd5b505af11580156138e7573d6000803e3d6000fd5b505050505050505050565b6000806000806000600e8881548110151561390957fe5b90600052602060002090600f02016004018781548110151561392757fe5b906000526020600020018681548110151561393e57fe5b60009182526020909120600490910201805460018201546002830154600390930154600160a060020a039092169b909a5091985060ff169650945050505050565b600154600160a060020a031633146139de576040805160e560020a62461bcd0281526020600482015260236024820152600080516020615dba833981519152604482015260e960020a6237b91702606482015290519081900360840190fd5b6003805473ffffffffffffffffffffffffffffffffffffffff1916600160a060020a0392909216919091179055565b60008080808060035460a060020a900460ff166002811115613a2b57fe5b14613a80576040805160e560020a62461bcd02815260206004820152601060248201527f496e636f72726563742070686173652e00000000000000000000000000000000604482015290519081900360640190fd5b600d54600186600c54010311613a965784613aa1565b600c54600d54600101035b9350600092505b83831015613b10576000838152600b6020526040902080546001820154919350613aed91600160a060020a0382169160a060020a90046001606060020a031690614bc1565b6000838152600b6020526040812081815560019081019190915590920191613aa8565b5050600c80549092019091555050565b600154600160a060020a03163314613b7f576040805160e560020a62461bcd0281526020600482015260236024820152600080516020615dba833981519152604482015260e960020a6237b91702606482015290519081900360840190fd5b80600a836001606060020a0316815481101515613b9857fe5b60009182526020909120600b90910201600201805460ff19169115159190911790555050565b600154600160a060020a03163314613c1d576040805160e560020a62461bcd0281526020600482015260236024820152600080516020615dba833981519152604482015260e960020a6237b91702606482015290519081900360840190fd5b80600a836001606060020a0316815481101515613c3657fe5b90600052602060002090600b0201600601819055505050565b60035460a060020a900460ff1681565b6000808080808060028060035460a060020a900460ff166002811115613c8157fe5b14613cd6576040805160e560020a62461bcd02815260206004820152601060248201527f496e636f72726563742070686173652e00000000000000000000000000000000604482015290519081900360640190fd5b88600080600e805484908110613ce857fe5b600091825260209091206002600f90920201015460ff166004811115613d0a57fe5b14613d4d576040805160e560020a62461bcd0281526020600482015260116024820152600080516020615dda833981519152604482015290519081900360640190fd5b600e80548c908110613d5b57fe5b90600052602060002090600f020198508860080154975089880196508860040160018a6004018054905003815481101515613d9257fe5b600091825260209091200154871115613dc8576004890180546000198101908110613db957fe5b60009182526020909120015496505b8795505b8686101561330657885460075460408051918252602082018e905281810189905251908190036060019020613e1591613e10916001606060020a03909116906152d3565b6153a3565b60048b0180549297506001606060020a0391909116955086916000198101908110613e3c57fe5b9060005260206000200187815481101515613e5357fe5b60009182526020909120600490910201805473ffffffffffffffffffffffffffffffffffffffff1916600160a060020a039290921691909117905560088901805460010190556006890180546000198101908110613ead57fe5b6000918252602080832090910154338352600f825260409283902060020180549091019055815188815291518d92600160a060020a038916927f4743253ddd0306c0f7de2d2d887b98c3b2fe9c9369ed0f6692d091d04a19d6aa92918290030190a3600489018054600191906000198101908110613f2757fe5b60009182526020909120015403861415613f4657600580546000190190555b600190950194613dcc565b600b6020526000908152604090208054600190910154600160a060020a0382169160a060020a90046001606060020a03169083565b60045481565b60085481565b600c5481565b600080600083613fa781614b72565b341015613fb357600080fd5b613fbc856153cf565b600e8054919450613fd09060018301615aa1565b9350600e84815481101515613fe157fe5b60009182526020909120600f9091020180546bffffffffffffffffffffffff19166001606060020a03858116919091178116336c0100000000000000000000000002178083556001830189905560028301805460ff19169055426003840155600a805493955092911690811061405357fe5b90600052602060002090600b0201600501543481151561406f57fe5b60048401805492909104916140878260018301615997565b8154811061409157fe5b90600052602060002001816140a691906159bb565b508160010154600101826005018360050180548091906001016140c991906159e7565b815481106140d357fe5b9060005260206000209060030201600101816140ef9190615a13565b5060058201805460019190600019810190811061410857fe5b60009182526020909120600390910201600201805460ff19169115159190911790558154600a8054600685019261271092916001606060020a0390911690811061414e57fe5b600091825260209091206004600b9092020101548454600a805490916001606060020a031690811061417c57fe5b90600052602060002090600b0201600301540281151561419857fe5b82546001818101855560009485526020808620949093049390910192909255600785018054808401825590845281842034910155600b85018054808401825590845281842001839055600c8501805480840182559084529083200191909155600d830180549161420a91908301615a37565b5060058054600101905560408051338152905185917f141dfc18aa6a56fc816f44f0e9e2f1ebc92b15ab167770e17db5b084c10ed995919081900360200190a250505092915050565b600154600090600160a060020a031633146142b5576040805160e560020a62461bcd0281526020600482015260236024820152600080516020615dba833981519152604482015260e960020a6237b91702606482015290519081900360840190fd5b600a546c0100000000000000000000000011614340576040805160e560020a62461bcd028152602060048201526024808201527f4d6178696d756d206e756d626572206f6620737562636f75727473207265616360448201527f6865642e00000000000000000000000000000000000000000000000000000000606482015290519081900360840190fd5b86600a8a6001606060020a031681548110151561435957fe5b90600052602060002090600b0201600301541115151561440f576040805160e560020a62461bcd02815260206004820152604760248201527f4120737562636f7572742063616e6e6f742062652061206368696c64206f662060448201527f6120737562636f7572742077697468206120686967686572206d696e696d756d60648201527f207374616b652e00000000000000000000000000000000000000000000000000608482015290519081900360a40190fd5b60408051610100810182526001606060020a038b168152815160008152602080820184528201528915158183015260608101899052608080820189905260a0820188905260c082018790528251808201909352600192600a929160e083019190889060049083908390808284375050509190925250508154600180820180855560009485526020948590208451600b9094020180546bffffffffffffffffffffffff19166001606060020a0390941693909317835583850151805191956144db93850192910190615acd565b50604082015160028201805460ff191691151591909117905560608201516003820155608082015160048083019190915560a0830151600583015560c0830151600683015560e083015161453491600784019190615b08565b50505003905061454d6001606060020a03821683615406565b600a80546001606060020a038b1690811061456457fe5b600091825260208083206001600b9093020182018054928301815583529091206001606060020a039092169101555050505050505050565b600160a060020a0381166000908152600f60209081526040808320805482518185028101850190935280835260609493849391839183018282801561463257602002820191906000526020600020906000905b82829054906101000a90046001606060020a03166001606060020a0316815260200190600c0190602082600b010492830192600103820291508084116145ef5790505b505050505093508060010154925080600201549150509193909250565b50600192915050565b600154600160a060020a031633146146b7576040805160e560020a62461bcd0281526020600482015260236024820152600080516020615dba833981519152604482015260e960020a6237b91702606482015290519081900360840190fd5b600955565b606080606080606080600080600e898154811015156146d757fe5b90600052602060002090600f020191508160060180548060200260200160405190810160405280929190818152602001828054801561473557602002820191906000526020600020905b815481526020019060010190808311614721575b505050505097508160070180548060200260200160405190810160405280929190818152602001828054801561478a57602002820191906000526020600020905b815481526020019060010190808311614776575b5050505050965081600b018054806020026020016040519081016040528092919081815260200182805480156147df57602002820191906000526020600020905b8154815260200190600101908083116147cb575b5050505050955081600c0180548060200260200160405190810160405280929190818152602001828054801561483457602002820191906000526020600020905b815481526020019060010190808311614820575b50505050509450600090505b600d8201548110156148c957600d820180548290811061485c57fe5b6000918252602082206002909102010154848281518110151561487b57fe5b60209081029091010152600d820180548290811061489557fe5b600091825260209091206002909102016001015483828151811015156148b757fe5b60209081029091010152600101614840565b505091939550919395565b60006060600080600e868154811015156148ea57fe5b90600052602060002090600f02016005018581548110151561490857fe5b90600052602060002090600302019050806000015493508060010180548060200260200160405190810160405280929190818152602001828054801561496d57602002820191906000526020600020905b815481526020019060010190808311614959575b50505060029093015495989197505060ff9094169450505050565b600154600160a060020a031633146149e7576040805160e560020a62461bcd0281526020600482015260236024820152600080516020615dba833981519152604482015260e960020a6237b91702606482015290519081900360840190fd5b6001805473ffffffffffffffffffffffffffffffffffffffff1916600160a060020a0392909216919091179055565b6000806000600e85815481101515614a2a57fe5b60009182526020909120600f90910201600481018054919350906000198101908110614a5257fe5b6000918252602090912001548254600a8054929350916001606060020a03909116908110614a7c57fe5b90600052602060002090600b02016006015481101515614b2e5781546001606060020a03161515614acf577f7fffffffffffffffffffffffffffffffffffffffffffffffffffffffffffffff9250614b29565b8154600a8054909182916001606060020a03909116908110614aed57fe5b60009182526020909120600b909102015481546001606060020a03909116908110614b1457fe5b90600052602060002090600b02016005015492505b614b64565b8154600a805460016002850201926001606060020a0316908110614b4e57fe5b90600052602060002090600b0201600501540292505b505092915050565b50600090565b600080614b7e836153cf565b9050600a816001606060020a0316815481101515614b9857fe5b90600052602060002090600b020160050154915050919050565b600254600160a060020a031681565b6000808080808080808060035460a060020a900460ff166002811115614be357fe5b14614c705760408051606081018252600160a060020a038d811682526001606060020a038d811660208085019182528486018f8152600d80546001908101918290556000918252600b9093529690962094518554925173ffffffffffffffffffffffffffffffffffffffff199093169085161790931660a060020a91909216021782559151910155613306565b881580614ca6575088600a8b6001606060020a0316815481101515614c9157fe5b90600052602060002090600b02016003015411155b1515614d48576040805160e560020a62461bcd02815260206004820152604a60248201527f546865206a75726f722773207374616b652063616e6e6f74206265206c6f776560448201527f72207468616e20746865206d696e696d756d207374616b6520666f722074686560648201527f20737562636f7572742e00000000000000000000000000000000000000000000608482015290519081900360a40190fd5b600160a060020a038b166000908152600f602052604090209750614d6c8b8b615500565b9650614d816001606060020a038b1688615548565b955088868960010154030194508860001480614e1c57506002546040805160e060020a6370a08231028152600160a060020a038e811660048301529151889392909216916370a08231916024808201926020929091908290030181600087803b158015614ded57600080fd5b505af1158015614e01573d6000803e3d6000fd5b505050506040513d6020811015614e1757600080fd5b505110155b1515614ebe576040805160e560020a62461bcd02815260206004820152605460248201527f546865206a75726f72277320746f74616c20616d6f756e74206f66207374616b60448201527f656420746f6b656e732063616e6e6f7420626520686967686572207468616e2060648201527f746865206a75726f7227732062616c616e63652e000000000000000000000000608482015290519081900360a40190fd5b60018801859055881515614fd257600093505b8754841015614fcd5787546001606060020a038b1690899086908110614ef357fe5b600091825260209091206002820401546001909116600c026101000a90046001606060020a03161415614fc257875488906000198101908110614f3257fe5b9060005260206000209060029182820401919006600c029054906101000a90046001606060020a03168860000185815481101515614f6c57fe5b9060005260206000209060029182820401919006600c026101000a8154816001606060020a0302191690836001606060020a0316021790555087600001805480919060019003614fbc9190615b35565b50614fcd565b600190930192614ed1565b615014565b85151561501457875460018082018a5560008a8152602090206002830401805491909216600c026101000a6001606060020a0381810219909216918d16021790555b60009250896001606060020a031691505b82151561509b576150368288615548565b90508015156150505761504a828a89615599565b5061505b565b61505b828a896157a7565b81151561506b5760019250615096565b600a80548390811061507957fe5b60009182526020909120600b90910201546001606060020a031691505b615025565b604080516001606060020a038c168152602081018b90528082018790529051600160a060020a038d16917f70ca4ec64687bf265f39041896f3dbf10b9f650503cb38f2b3569fdce7489c36919081900360600190a25050505050505050505050565b6000806000600e8581548110151561511157fe5b60009182526020909120600f9091020160058101805491945090600019810190811061513957fe5b9060005260206000209060030201600001549150826005018481548110151561515e57fe5b90600052602060002090600302016001018281548110151561517c57fe5b6000918252602090912001546005840180549192509060001981019081106151a057fe5b600091825260209091206002600390920201015460ff166151e7578083600c01858154811015156151cd57fe5b90600052602060002001548115156151e157fe5b046151ea565b60005b600d84018054869081106151fa57fe5b6000918252602082206002909102010155600583018054600019810190811061521f57fe5b600091825260209091206002600390920201015460ff166152665780836007018581548110151561524c57fe5b906000526020600020015481151561526057fe5b046152a8565b6004830180548590811061527657fe5b6000918252602090912001546007840180548690811061529257fe5b90600052602060002001548115156152a657fe5b045b600d84018054869081106152b857fe5b60009182526020909120600290910201600101555050505050565b60008281526020819052604081206002810180548391829182918291829190829081106152fc57fe5b90600052602060002001548881151561531157fe5b0693505b600286015486548602600101101561538657600192505b8554831161538157855460028701805491870285019350908390811061534e57fe5b90600052602060002001549050808410151561536e578084039350615376565b819450615381565b60019092019161532c565b615315565b505050600091825250600490910160205260409020549392505050565b60008060405160005b60148110156153c75784811a81600c840101536001016153ac565b505193915050565b6000602082511015156153fd57506020810151600a546001606060020a038216106153f8575060005b615401565b5060005b919050565b600082815260208190526040902080541561546b576040805160e560020a62461bcd02815260206004820152601460248201527f5472656520616c7265616479206578697374732e000000000000000000000000604482015290519081900360640190fd5b600182116154c3576040805160e560020a62461bcd02815260206004820152601b60248201527f4b206d7573742062652067726561746572207468616e206f6e652e0000000000604482015290519081900360640190fd5b81815560006154d56001830182615a13565b5060006154e56002830182615a13565b50600201805460018101825560009182526020822001555050565b600060405160005b6014811015615523578481600c011a81830153600101615508565b5060145b602081101561553f5783811a81830153600101615527565b50519392505050565b600082815260208181526040808320848452600381019092528220548015156155745760009250614b64565b6002820180548290811061558457fe5b90600052602060002001549250505092915050565b6000838152602081815260408083208484526003810190925282205482908190819015615635576040805160e560020a62461bcd028152602060048201526024808201527f494420616c72656164792068617320612076616c756520696e2074686973207460448201527f7265652e00000000000000000000000000000000000000000000000000000000606482015290519081900360840190fd5b6001840154151561571357600284018054600180820183556000928352602090922081018990559550851480159061567b57508354600019860181151561567857fe5b06155b1561570e578354600285019081908781151561569357fe5b048154811015156156a057fe5b600091825260208083209091015483546001810185559383529120909101558354858115156156cb57fe5b046000818152600486016020818152604080842080549085905580855260038a01835281852060018c019081905580865293909252909220829055919450925090505b61576a565b600184018054600019810190811061572757fe5b60009182526020909120015460018501805491965061574a906000198301615a13565b5086846002018681548110151561575d57fe5b6000918252602090912001555b6000868152600385016020908152604080832088905587835260048701909152902086905561579c888660018a6158df565b505050509392505050565b60008381526020818152604080832084845260038101909252822054909180821515615843576040805160e560020a62461bcd02815260206004820152602660248201527f494420646f6573206e6f74206861766520612076616c756520696e207468697360448201527f20747265652e0000000000000000000000000000000000000000000000000000606482015290519081900360840190fd5b85846002018481548110151561585557fe5b9060005260206000200154111591508161588c5785846002018481548110151561587b57fe5b9060005260206000200154036158aa565b6002840180548490811061589c57fe5b906000526020600020015486035b90508584600201848154811015156158be57fe5b6000918252602090912001556158d6878484846158df565b50505050505050565b6000848152602081905260409020835b8015615970578154600019820181151561590557fe5b049050836159305782826002018281548110151561591f57fe5b90600052602060002001540361594f565b82826002018281548110151561594257fe5b9060005260206000200154015b6002830180548390811061595f57fe5b6000918252602090912001556158ef565b505050505050565b6080604051908101604052806004906020820280388339509192915050565b815481835581811115612c1b57600083815260209020612c1b918101908301615b69565b815481835581811115612c1b57600402816004028360005260206000209182019101612c1b9190615b8f565b815481835581811115612c1b57600302816003028360005260206000209182019101612c1b9190615bda565b815481835581811115612c1b57600083815260209020612c1b918101908301615c0f565b815481835581811115612c1b57600202816002028360005260206000209182019101612c1b9190615c29565b8260048101928215615a91579160200282015b82811115615a91578235825591602001919060010190615a76565b50615a9d929150615c0f565b5090565b815481835581811115612c1b57600f0281600f028360005260206000209182019101612c1b9190615c4c565b828054828255906000526020600020908101928215615a91579160200282015b82811115615a91578251825591602001919060010190615aed565b8260048101928215615a915791602002820182811115615a91578251825591602001919060010190615aed565b815481835581811115612c1b576001016002900481600101600290048360005260206000209182019101612c1b9190615c0f565b615b8c91905b80821115615a9d576000615b838282615d09565b50600101615b6f565b90565b615b8c91905b80821115615a9d57805473ffffffffffffffffffffffffffffffffffffffff19168155600060018201819055600282015560038101805460ff19169055600401615b95565b615b8c91905b80821115615a9d576000808255615bfa6001830182615d2d565b5060028101805460ff19169055600301615be0565b615b8c91905b80821115615a9d5760008155600101615c15565b615b8c91905b80821115615a9d576000615c438282615d4b565b50600201615c2f565b615b8c91905b80821115615a9d5760008082556001820181905560028201805460ff1916905560038201819055615c866004830182615d59565b615c94600583016000615d77565b615ca2600683016000615d2d565b615cb0600783016000615d2d565b60088201600090556009820160009055600a820160009055600b82016000615cd89190615d2d565b615ce6600c83016000615d2d565b615cf4600d83016000615d98565b50600e8101805460ff19169055600f01615c52565b5080546000825560040290600052602060002090810190615d2a9190615b8f565b50565b5080546000825590600052602060002090810190615d2a9190615c0f565b506000815560010160009055565b5080546000825590600052602060002090810190615d2a9190615b69565b5080546000825560030290600052602060002090810190615d2a9190615bda565b5080546000825560020290600052602060002090810190615d2a9190615c29560043616e206f6e6c792062652063616c6c65642062792074686520676f7665726e496e636f727265637420706572696f642e000000000000000000000000000000a165627a7a7230582037f389999664d83bd82808cef2f4b8caa1560828b75e02e0a3fc7ba13a461f320029",
  "source": "pragma solidity ^0.4.24;\n\nimport \"kleros-interaction/contracts/standard/rng/RNG.sol\";\nimport \"kleros-interaction/contracts/standard/arbitration/Arbitrable.sol\";\nimport { MiniMeTokenERC20 as Pinakion } from \"kleros-interaction/contracts/standard/arbitration/ArbitrableTokens/MiniMeTokenERC20.sol\";\nimport \"minimetoken/contracts/TokenController.sol\";\n\nimport \"../data-structures/SortitionSumTreeFactory.sol\";\n\n/**\n *  @title KlerosLiquid\n *  @author Enrique Piqueras - <epiquerass@gmail.com>\n *  @dev The main Kleros contract with dispute resolution logic for the Athena release.\n */\ncontract KlerosLiquid is SortitionSumTreeFactory, TokenController, Arbitrator {\n    /* Enums */\n\n    // General\n    enum Phase {\n      staking, // Stake sum trees can be updated. Pass after `minStakingTime` passes and there is at least one dispute without jurors.\n      generating, // Waiting on random number. Pass as soon as it is ready.\n      drawing // Jurors can be drawn. Pass after all disputes have jurors or `maxDrawingTime` passes.\n    }\n\n    // Dispute\n    enum Period {\n      evidence, // Evidence can be submitted. This is also when drawing has to take place.\n      commit, // Jurors commit a hashed vote. This is skipped for courts without hidden votes.\n      vote, // Jurors reveal/cast their vote depending on wether the court has hidden votes or not.\n      appeal, // The dispute can be appealed.\n      execution // Tokens are redistributed and the ruling is executed.\n    }\n\n    /* Structs */\n\n    // General\n    struct Court {\n        uint96 parent; // The parent court.\n        uint[] children; // List of child courts.\n        bool hiddenVotes; // Wether to use commit and reveal or not.\n        uint minStake; // Minimum tokens needed to stake in the court.\n        uint alpha; // Basis point of tokens that are lost when incoherent.\n        uint jurorFee; // Arbitration fee paid to each juror.\n        // The appeal after the one that reaches this number of jurors will go to the parent court if any, otherwise, no more appeals are possible.\n        uint jurorsForJump;\n        uint[4] timesPerPeriod; // The time allotted to each dispute period in the form `timesPerPeriod[period]`.\n    }\n    struct DelayedSetStake {\n        address account; // The address of the juror.\n        uint96 subcourtID; // The ID of the subcourt.\n        uint stake; // The new stake.\n    }\n\n    // Dispute\n    struct Vote {\n        address account; // The address of the juror.\n        bytes32 commit; // The commit of the juror. For courts with hidden votes.\n        uint choice; // The choice of the juror.\n        bool voted; // True if the vote has been cast or revealed, false otherwise.\n    }\n    struct VoteCounter {\n        // The choice with the most votes. Note that in the case of a tie, it is the choice that reached the tied number of votes first.\n        uint winningChoice;\n        uint[] counts; // The sum of votes for each choice in the form `counts[choice]`.\n        bool tied; // True if there is a tie, false otherwise.\n    }\n    struct Dispute { // Note that appeal `0` is equivalent to the first round of the dispute.\n        uint96 subcourtID; // The ID of the subcourt the dispute is in.\n        Arbitrable arbitrated; // The arbitrated arbitrable contract.\n        // The number of choices jurors have when voting. This does not include choice `0` which is reserved for \"refuse to arbitrate\"/\"no ruling\".\n        uint numberOfChoices;\n        Period period; // The current period of the dispute.\n        uint lastPeriodChange; // The last time the period was changed.\n        // The votes in the form `votes[appeal][voteID]`. On each round, a new list is pushed and packed with as many empty votes as there are draws.\n        Vote[][] votes;\n        VoteCounter[] voteCounters; // The vote counters in the form `voteCounters[appeal]`.\n        uint[] jurorAtStake; // The amount of tokens at stake for each juror in the form `jurorAtStake[appeal]`.\n        uint[] totalJurorFees; // The total juror fees paid in the form `totalJurorFees[appeal]`.\n        uint drawsPerRound; // A counter of draws made in the current round.\n        uint commitsPerRound; // A counter of commits made in the current round.\n        uint votesPerRound; // A counter of votes made in the current round.\n        uint[] repartitionsPerRound; // A counter of vote reward repartitions made in each round in the form `repartitionsPerRound[appeal]`.\n        uint[] penaltiesPerRound; // The amount of tokens collected from penalties in each round in the form `penaltiesPerRound[appeal]`.\n        uint[2][] rewardsPerRound; // The amount of tokens and ETH rewarded in each round in the form `rewardsPerRound[appeal][tokens, ETH]`.\n        bool ruled; // True if the ruling has been executed, false otherwise.\n    }\n\n    // Juror\n    struct Juror {\n        uint96[] subcourtIDs; // The IDs of subcourts where the juror has stake path ends.\n        uint stakedTokens; // The juror's total amount of tokens staked in subcourts.\n        uint lockedTokens; // The juror's total amount of tokens at stake in disputes.\n    }\n\n    /* Events */\n\n    /** @dev Emitted when we pass to a new phase.\n     *  @param _phase The new phase.\n     */\n    event NewPhase(Phase _phase);\n\n    /** @dev Emitted when a dispute passes to a new period.\n     *  @param _disputeID The ID of the dispute.\n     *  @param _period The new period.\n     */\n    event NewPeriod(uint indexed _disputeID, Period _period);\n\n    /** @dev Emitted when a juror's stake is set.\n     *  @param _address The address of the juror.\n     *  @param _subcourtID The ID of the subcourt at the end of the stake path.\n     *  @param _stake The new stake.\n     *  @param _newTotalStake The new total stake.\n     */\n    event StakeSet(address indexed _address, uint _subcourtID, uint _stake, uint _newTotalStake);\n\n    /** @dev Emitted when a juror is drawn.\n     *  @param _address The drawn address.\n     *  @param _disputeID The ID of the dispute.\n     *  @param _voteID The vote ID.\n     */\n    event Draw(address indexed _address, uint indexed _disputeID, uint _voteID);\n\n    /** @dev Emitted when a juror wins or loses tokens and ETH from a dispute.\n     *  @param _address The juror affected.\n     *  @param _disputeID The ID of the dispute.\n     *  @param _tokenAmount The amount of tokens won or lost.\n     *  @param _ETHAmount The amount of ETH won or lost.\n     */\n    event TokenAndETHShift(address indexed _address, uint indexed _disputeID, int _tokenAmount, int _ETHAmount);\n\n    /* Storage */\n\n    // General Constants\n    uint public constant NON_PAYABLE_AMOUNT = (2 ** 256 - 2) / 2;\n    uint public constant ALPHA_DIVISOR = 1e4;\n    // General Contracts\n    address public governor;\n    Pinakion public pinakion;\n    RNG public RNGenerator;\n    // General Dynamic\n    Phase public phase;\n    uint public lastPhaseChange;\n    uint public disputesWithoutJurors;\n    uint public RNBlock;\n    uint public RN;\n    uint public minStakingTime;\n    uint public maxDrawingTime;\n    // General Storage\n    Court[] public courts;\n    mapping(uint => DelayedSetStake) public delayedSetStakes;\n    uint public nextDelayedSetStake = 1;\n    uint public lastDelayedSetStake;\n\n    // Dispute\n    Dispute[] public disputes;\n\n    // Juror\n    mapping(address => Juror) internal jurors;\n\n    /* Modifiers */\n\n    /** @dev Requires a specific phase.\n     *  @param _phase The required phase.\n     */\n    modifier onlyDuringPhase(Phase _phase) {require(phase == _phase, \"Incorrect phase.\"); _;}\n\n    /** @dev Requires a specific period in a dispute.\n     *  @param _disputeID The ID of the dispute.\n     *  @param _period The required period.\n     */\n    modifier onlyDuringPeriod(uint _disputeID, Period _period) {require(disputes[_disputeID].period == _period, \"Incorrect period.\"); _;}\n\n    /** @dev Requires that the sender is the governor. */\n    modifier onlyByGovernor() {require(governor == msg.sender, \"Can only be called by the governor.\"); _;}\n\n    /* Constructor */\n\n    /** @dev Constructs the KlerosLiquid contract.\n     *  @param _governor The governor's address.\n     *  @param _pinakion The address of the token contract.\n     *  @param _RNGenerator The address of the RNG contract.\n     *  @param _minStakingTime The minimum time that the staking phase should last.\n     *  @param _maxDrawingTime The maximum time that the drawing phase should last.\n     *  @param _hiddenVotes The `hiddenVotes` property value of the general court.\n     *  @param _minStake The `minStake` property value of the general court.\n     *  @param _alpha The `alpha` property value of the general court.\n     *  @param _jurorFee The `jurorFee` property value of the general court.\n     *  @param _jurorsForJump The `jurorsForJump` property value of the general court.\n     *  @param _timesPerPeriod The `timesPerPeriod` property value of the general court.\n     *  @param _sortitionSumTreeK The number of children per node of the general court's sortition sum tree.\n     */\n    constructor(\n        address _governor,\n        Pinakion _pinakion,\n        RNG _RNGenerator,\n        uint _minStakingTime,\n        uint _maxDrawingTime,\n        bool _hiddenVotes,\n        uint _minStake,\n        uint _alpha,\n        uint _jurorFee,\n        uint _jurorsForJump,\n        uint[4] _timesPerPeriod,\n        uint _sortitionSumTreeK\n    ) public {\n        // Initialize contract.\n        governor = _governor;\n        pinakion = _pinakion;\n        RNGenerator = _RNGenerator;\n        minStakingTime = _minStakingTime;\n        maxDrawingTime = _maxDrawingTime;\n        lastPhaseChange = now;\n\n        // Create the general court.\n        courts.push(Court({\n            parent: 0,\n            children: new uint[](0),\n            hiddenVotes: _hiddenVotes,\n            minStake: _minStake,\n            alpha: _alpha,\n            jurorFee: _jurorFee,\n            jurorsForJump: _jurorsForJump,\n            timesPerPeriod: _timesPerPeriod\n        }));\n        createTree(bytes32(0), _sortitionSumTreeK);\n    }\n\n    /* External */\n\n    /** @dev Lets the governor call anything on behalf of the contract.\n     *  @param _destination The destination of the call.\n     *  @param _amount The value sent with the call.\n     *  @param _data The data sent with the call.\n     */\n    function executeGovernorProposal(address _destination, uint _amount, bytes _data) external onlyByGovernor {\n        _destination.call.value(_amount)(_data); // solium-disable-line security/no-call-value\n    }\n\n    /** @dev Changes the `governor` storage variable.\n     *  @param _governor The new value for the `governor` storage variable.\n     */\n    function changeGovernor(address _governor) external onlyByGovernor {\n        governor = _governor;\n    }\n\n    /** @dev Changes the `pinakion` storage variable.\n     *  @param _pinakion The new value for the `pinakion` storage variable.\n     */\n    function changePinakion(Pinakion _pinakion) external onlyByGovernor {\n        pinakion = _pinakion;\n    }\n\n    /** @dev Changes the `RNGenerator` storage variable.\n     *  @param _RNGenerator The new value for the `RNGenerator` storage variable.\n     */\n    function changeRNGenerator(RNG _RNGenerator) external onlyByGovernor {\n        RNGenerator = _RNGenerator;\n    }\n\n    /** @dev Changes the `minStakingTime` storage variable.\n     *  @param _minStakingTime The new value for the `minStakingTime` storage variable.\n     */\n    function changeMinStakingTime(uint _minStakingTime) external onlyByGovernor {\n        minStakingTime = _minStakingTime;\n    }\n\n    /** @dev Changes the `maxDrawingTime` storage variable.\n     *  @param _maxDrawingTime The new value for the `maxDrawingTime` storage variable.\n     */\n    function changeMaxDrawingTime(uint _maxDrawingTime) external onlyByGovernor {\n        maxDrawingTime = _maxDrawingTime;\n    }\n\n    /** @dev Creates a subcourt under a specified parent court.\n     *  @param _parent The `parent` property value of the subcourt.\n     *  @param _hiddenVotes The `hiddenVotes` property value of the subcourt.\n     *  @param _minStake The `minStake` property value of the subcourt.\n     *  @param _alpha The `alpha` property value of the subcourt.\n     *  @param _jurorFee The `jurorFee` property value of the subcourt.\n     *  @param _jurorsForJump The `jurorsForJump` property value of the subcourt.\n     *  @param _timesPerPeriod The `timesPerPeriod` property value of the subcourt.\n     *  @param _sortitionSumTreeK The number of children per node of the subcourt's sortition sum tree.\n     */\n    function createSubcourt(\n        uint96 _parent,\n        bool _hiddenVotes,\n        uint _minStake,\n        uint _alpha,\n        uint _jurorFee,\n        uint _jurorsForJump,\n        uint[4] _timesPerPeriod,\n        uint _sortitionSumTreeK\n    ) external onlyByGovernor {\n        require(courts.length < 2 ** 96, \"Maximum number of subcourts reached.\");\n        require(courts[_parent].minStake <= _minStake, \"A subcourt cannot be a child of a subcourt with a higher minimum stake.\");\n\n        // Create the subcourt.\n        uint96 subcourtID = uint96(\n            courts.push(Court({\n                parent: _parent,\n                children: new uint[](0),\n                hiddenVotes: _hiddenVotes,\n                minStake: _minStake,\n                alpha: _alpha,\n                jurorFee: _jurorFee,\n                jurorsForJump: _jurorsForJump,\n                timesPerPeriod: _timesPerPeriod\n            })) - 1\n        );\n        createTree(bytes32(subcourtID), _sortitionSumTreeK);\n\n        // Update the parent.\n        courts[_parent].children.push(subcourtID);\n    }\n\n    /** @dev Changes the `hiddenVotes` property value of the specified subcourt.\n     *  @param _subcourtID The ID of the subcourt.\n     *  @param _hiddenVotes The new value for the `hiddenVotes` property value.\n     */\n    function changeSubcourtHiddenVotes(uint96 _subcourtID, bool _hiddenVotes) external onlyByGovernor {\n        courts[_subcourtID].hiddenVotes = _hiddenVotes;\n    }\n\n    /** @dev Changes the `minStake` property value of the specified subcourt.\n     *  @param _subcourtID The ID of the subcourt.\n     *  @param _minStake The new value for the `minStake` property value.\n     */\n    function changeSubcourtMinStake(uint96 _subcourtID, uint _minStake) external onlyByGovernor {\n        courts[_subcourtID].minStake = _minStake;\n    }\n\n    /** @dev Changes the `alpha` property value of the specified subcourt.\n     *  @param _subcourtID The ID of the subcourt.\n     *  @param _alpha The new value for the `alpha` property value.\n     */\n    function changeSubcourtAlpha(uint96 _subcourtID, uint _alpha) external onlyByGovernor {\n        courts[_subcourtID].alpha = _alpha;\n    }\n\n    /** @dev Changes the `jurorFee` property value of the specified subcourt.\n     *  @param _subcourtID The ID of the subcourt.\n     *  @param _jurorFee The new value for the `jurorFee` property value.\n     */\n    function changeSubcourtJurorFee(uint96 _subcourtID, uint _jurorFee) external onlyByGovernor {\n        courts[_subcourtID].jurorFee = _jurorFee;\n    }\n\n    /** @dev Changes the `jurorsForJump` property value of the specified subcourt.\n     *  @param _subcourtID The ID of the subcourt.\n     *  @param _jurorsForJump The new value for the `jurorsForJump` property value.\n     */\n    function changeSubcourtJurorsForJump(uint96 _subcourtID, uint _jurorsForJump) external onlyByGovernor {\n        courts[_subcourtID].jurorsForJump = _jurorsForJump;\n    }\n\n    /** @dev Changes the `timesPerPeriod` property value of the specified subcourt.\n     *  @param _subcourtID The ID of the subcourt.\n     *  @param _timesPerPeriod The new value for the `timesPerPeriod` property value.\n     */\n    function changeSubcourtTimesPerPeriod(uint96 _subcourtID, uint[4] _timesPerPeriod) external onlyByGovernor {\n        courts[_subcourtID].timesPerPeriod = _timesPerPeriod;\n    }\n\n    /** @dev Pass the phase. TRUSTED */\n    function passPhase() external {\n        if (phase == Phase.staking) {\n            require(now - lastPhaseChange >= minStakingTime, \"The minimum staking time has not passed yet.\");\n            require(disputesWithoutJurors > 0, \"There are no disputes that need jurors.\");\n            RNBlock = block.number + 1;\n            RNGenerator.requestRN(RNBlock);\n            phase = Phase.generating;\n        } else if (phase == Phase.generating) {\n            RN = RNGenerator.getUncorrelatedRN(RNBlock);\n            require(RN != 0, \"Random number is not ready yet.\");\n            phase = Phase.drawing;\n        } else if (phase == Phase.drawing) {\n            require(disputesWithoutJurors == 0 || now - lastPhaseChange >= maxDrawingTime, \"There are still disputes without jurors and the maximum drawing time has not passed yet.\");\n            phase = Phase.staking;\n        }\n\n        lastPhaseChange = now;\n        emit NewPhase(phase);\n    }\n\n    /** @dev Pass the period of a specified dispute.\n     *  @param _disputeID The ID of the dispute.\n     */\n    function passPeriod(uint _disputeID) external {\n        Dispute storage dispute = disputes[_disputeID];\n        if (dispute.period == Period.evidence) {\n            require(now - dispute.lastPeriodChange >= courts[dispute.subcourtID].timesPerPeriod[uint(dispute.period)], \"The evidence period time has not passed yet.\");\n            require(dispute.drawsPerRound == dispute.votes[dispute.votes.length - 1].length, \"The dispute has not finished drawing yet.\");\n            dispute.period = courts[dispute.subcourtID].hiddenVotes ? Period.commit : Period.vote;\n        } else if (dispute.period == Period.commit) {\n            require(\n                now - dispute.lastPeriodChange >= courts[dispute.subcourtID].timesPerPeriod[uint(dispute.period)] || dispute.commitsPerRound == dispute.votes[dispute.votes.length - 1].length,\n                \"The commit period time has not passed yet and not every juror has committed yet.\"\n            );\n            dispute.period = Period.vote;\n        } else if (dispute.period == Period.vote) {\n            require(\n                now - dispute.lastPeriodChange >= courts[dispute.subcourtID].timesPerPeriod[uint(dispute.period)] || dispute.votesPerRound == dispute.votes[dispute.votes.length - 1].length,\n                \"The vote period time has not passed yet and not every juror has voted yet.\"\n            );\n            dispute.period = Period.appeal;\n        } else if (dispute.period == Period.appeal) {\n            require(now - dispute.lastPeriodChange >= courts[dispute.subcourtID].timesPerPeriod[uint(dispute.period)], \"The appeal period time has not passed yet.\");\n            dispute.period = Period.execution;\n        } else if (dispute.period == Period.execution) {\n            revert(\"The dispute is already in the last period.\");\n        }\n\n        dispute.lastPeriodChange = now;\n        emit NewPeriod(_disputeID, dispute.period);\n    }\n\n    /** @dev Sets the caller's stake in a subcourt.\n     *  @param _subcourtID The ID of the subcourt.\n     *  @param _stake The new stake.\n     */\n    function setStake(uint96 _subcourtID, uint128 _stake) external {\n        _setStake(msg.sender, _subcourtID, _stake);\n    }\n\n    /** @dev Execute the next delayed set stakes.\n     *  @param _iterations The number of delayed set stakes to execute.\n     */\n    function executeDelayedSetStakes(uint _iterations) external onlyDuringPhase(Phase.staking) {\n        uint actualIterations = (nextDelayedSetStake + _iterations) - 1 > lastDelayedSetStake ?\n            (lastDelayedSetStake + 1) - nextDelayedSetStake : _iterations;\n        for (uint i = 0; i < actualIterations; i++) {\n            DelayedSetStake storage delayedSetStake = delayedSetStakes[i];\n            _setStake(\n                delayedSetStake.account,\n                delayedSetStake.subcourtID,\n                delayedSetStake.stake\n            );\n            delete delayedSetStakes[i];\n        }\n        nextDelayedSetStake += actualIterations;\n    }\n\n    /** @dev Draws jurors for a dispute. Can be called in parts. `O(n)` where `n` is the number of iterations to run.\n     *  @param _disputeID The ID of the dispute.\n     *  @param _iterations The number of iterations to run.\n     */\n    function drawVotes(uint _disputeID, uint _iterations) external onlyDuringPhase(Phase.drawing) onlyDuringPeriod(_disputeID, Period.evidence) {\n        Dispute storage dispute = disputes[_disputeID];\n        uint startIndex = dispute.drawsPerRound;\n        uint endIndex = startIndex + _iterations;\n\n        // Avoid going out of range.\n        if (endIndex > dispute.votes[dispute.votes.length - 1].length) endIndex = dispute.votes[dispute.votes.length - 1].length;\n        for (uint i = startIndex; i < endIndex; i++) {\n            // Draw from sortition tree.\n            (\n                address drawnAddress,\n                uint subcourtID\n            ) = stakePathIDToAccountAndSubcourtID(super.draw(bytes32(dispute.subcourtID), uint(keccak256(RN, _disputeID, i))));\n\n            // Save the vote.\n            dispute.votes[dispute.votes.length - 1][i].account = drawnAddress;\n            dispute.drawsPerRound++;\n            jurors[msg.sender].lockedTokens += dispute.jurorAtStake[dispute.jurorAtStake.length - 1];\n            emit Draw(drawnAddress, _disputeID, i);\n\n            // If dispute is fully drawn.\n            if (i == dispute.votes[dispute.votes.length - 1].length - 1) disputesWithoutJurors--;\n        }\n    }\n\n    /** @dev Sets the caller's commits for the specified votes. `O(n)` where `n` is the number of commits.\n     *  @param _disputeID The ID of the dispute.\n     *  @param _voteIDs The IDs of the votes.\n     *  @param _commits The commits.\n     */\n    function commit(uint _disputeID, uint[] _voteIDs, bytes32[] _commits) external onlyDuringPeriod(_disputeID, Period.commit) {\n        Dispute storage dispute = disputes[_disputeID];\n        for (uint i = 0; i < _voteIDs.length; i++) {\n            require(dispute.votes[dispute.votes.length - 1][_voteIDs[i]].account == msg.sender, \"The caller has to own the vote.\");\n            require(dispute.votes[dispute.votes.length - 1][_voteIDs[i]].commit == bytes32(0), \"Already committed this vote.\");\n            dispute.votes[dispute.votes.length - 1][_voteIDs[i]].commit = _commits[i];\n        }\n        dispute.commitsPerRound += _voteIDs.length;\n    }\n\n    /** @dev Sets the caller's choices for the specified votes. `O(n)` where `n` is the number of votes.\n     *  @param _disputeID The ID of the dispute.\n     *  @param _voteIDs The IDs of the votes.\n     *  @param _choice The choice.\n     *  @param _salts The salts for the commits if the votes were hidden.\n     */\n    function vote(uint _disputeID, uint[] _voteIDs, uint _choice, uint[] _salts) external onlyDuringPeriod(_disputeID, Period.vote) {\n        Dispute storage dispute = disputes[_disputeID];\n\n        // Save the votes.\n        for (uint i = 0; i < _voteIDs.length; i++) {\n            require(dispute.votes[dispute.votes.length - 1][_voteIDs[i]].account == msg.sender, \"The caller has to own the vote.\");\n            require(dispute.numberOfChoices >= _choice, \"The choice has to be less than or equal to the number of choices for the dispute.\");\n            require(\n                !courts[dispute.subcourtID].hiddenVotes || dispute.votes[dispute.votes.length - 1][_voteIDs[i]].commit == keccak256(_choice, _salts[i]),\n                \"The commit must match the choice in subcourts with hidden votes.\"\n            );\n            require(!dispute.votes[dispute.votes.length - 1][_voteIDs[i]].voted, \"Vote already cast.\");\n            dispute.votes[dispute.votes.length - 1][_voteIDs[i]].choice = _choice;\n            dispute.votes[dispute.votes.length - 1][_voteIDs[i]].voted = true;\n        }\n        dispute.votesPerRound += _voteIDs.length;\n\n        // Update winning choice.\n        VoteCounter storage voteCounter = dispute.voteCounters[dispute.voteCounters.length - 1];\n        voteCounter.counts[_choice] += _voteIDs.length;\n        if (voteCounter.counts[_choice] == voteCounter.counts[voteCounter.winningChoice]) { // Tie.\n            if (!voteCounter.tied) voteCounter.tied = true;\n        } else if (voteCounter.counts[_choice] > voteCounter.counts[voteCounter.winningChoice]) { // New winner.\n            voteCounter.winningChoice = _choice;\n            if (voteCounter.tied) voteCounter.tied = false;\n        }\n    }\n\n    /** @dev Computes the token and ETH rewards for a specified case. NOTE: Temporary function until solidity increases local variable allowance.\n     *  @param _disputeID The ID of the dispute.\n     *  @param _appeal The appeal.\n     */\n    function computeTokenAndETHRewards(uint _disputeID, uint _appeal) private {\n        Dispute storage dispute = disputes[_disputeID];\n        uint winningChoice = dispute.voteCounters[dispute.voteCounters.length - 1].winningChoice;\n        uint coherentCount = dispute.voteCounters[_appeal].counts[winningChoice];\n\n        // Distribute penalties and arbitration fees between coherent voters,\n        // if there is a tie, there are no penalties to distribute and arbitration fees are distributed between every juror.\n        dispute.rewardsPerRound[_appeal][0] = dispute.voteCounters[dispute.voteCounters.length - 1].tied ?\n            0 : dispute.penaltiesPerRound[_appeal] / coherentCount;\n        dispute.rewardsPerRound[_appeal][1] = dispute.voteCounters[dispute.voteCounters.length - 1].tied ?\n            dispute.totalJurorFees[_appeal] / dispute.votes[_appeal].length : dispute.totalJurorFees[_appeal] / coherentCount;\n    }\n\n    /** @dev Repartitions tokens and ETH for a specified appeal in a specified dispute. Can be called in parts.\n     *  `O(i + j * (n + c + p * log(s)))` where `i` is the number of iterations to run, `j` is the number of jurors that need to be unstaked, `n` is the maximum number of children of one of these jurors' subcourts, `c` is the maximum number of subcourts one of these jurors has staked in, `p` is the depth of the subcourt tree, and `s` is the maximum number of stakers in one of these subcourts.\n     *  @param _disputeID The ID of the dispute.\n     *  @param _appeal The appeal.\n     *  @param _iterations The number of iterations to run.\n     */\n    function execute(uint _disputeID, uint _appeal, uint _iterations) external onlyDuringPeriod(_disputeID, Period.execution) {\n        Dispute storage dispute = disputes[_disputeID];\n        uint winningChoice = dispute.voteCounters[dispute.voteCounters.length - 1].winningChoice;\n        uint startIndex = dispute.repartitionsPerRound[_appeal];\n        uint endIndex = startIndex + _iterations;\n\n        // Avoid going out of range. We loop over the votes twice, first to collect penalties, and second to distribute them as rewards along with arbitration fees.\n        if (endIndex > dispute.votes[_appeal].length * 2) endIndex = dispute.votes[_appeal].length * 2;\n        for (uint i = startIndex; i < endIndex; i++) {\n            Vote storage vote = dispute.votes[_appeal][i % dispute.votes[_appeal].length];\n            if (vote.choice == winningChoice || dispute.voteCounters[dispute.voteCounters.length - 1].tied) { // Winning vote or it's a tie.\n                if (i >= dispute.votes[_appeal].length) { // Only execute in the second half of the iterations.\n\n                    // Reward.\n                    uint tokenReward = dispute.rewardsPerRound[_appeal][0];\n                    uint ETHReward = dispute.rewardsPerRound[_appeal][1];\n                    pinakion.transfer(vote.account, tokenReward);\n                    vote.account.send(ETHReward);\n                    emit TokenAndETHShift(vote.account, _disputeID, int(tokenReward), int(ETHReward));\n                    jurors[vote.account].lockedTokens -= dispute.jurorAtStake[_appeal];\n                }\n            } else { // Losing vote and it's not a tie.\n                if (i < dispute.votes[_appeal].length) { // Only execute in the first half of the iterations.\n\n                    // Penalize.\n                    uint penalty = dispute.jurorAtStake[_appeal] > pinakion.balanceOf(vote.account) ? pinakion.balanceOf(vote.account) : dispute.jurorAtStake[_appeal];\n                    pinakion.transferFrom(vote.account, this, penalty);\n                    emit TokenAndETHShift(vote.account, _disputeID, -int(penalty), 0);\n                    dispute.penaltiesPerRound[_appeal] += penalty;\n                    jurors[vote.account].lockedTokens -= dispute.jurorAtStake[_appeal];\n\n                    // Unstake juror if his penalty made balance less than his total stake or if he lost due to inactivity.\n                    if (pinakion.balanceOf(vote.account) < jurors[vote.account].stakedTokens || !vote.voted)\n                        for (uint j = 0; j < jurors[vote.account].subcourtIDs.length; j++)\n                            _setStake(vote.account, jurors[vote.account].subcourtIDs[j], 0);\n                }\n            }\n            dispute.repartitionsPerRound[_appeal]++;\n\n            // Finished penalizing, compute and store rewards.\n            if (i == dispute.votes[_appeal].length - 1)\n                computeTokenAndETHRewards(_disputeID, _appeal);\n        }\n    }\n\n    /** @dev Executes a specified dispute's ruling. UNTRUSTED.\n     *  @param _disputeID The ID of the dispute.\n     */\n    function executeRuling(uint _disputeID) external onlyDuringPeriod(_disputeID, Period.execution) {\n        Dispute storage dispute = disputes[_disputeID];\n        require(!dispute.ruled, \"Ruling already executed.\");\n        dispute.ruled = true;\n        uint winningChoice = dispute.voteCounters[dispute.voteCounters.length - 1].tied ? 0\n            : dispute.voteCounters[dispute.voteCounters.length - 1].winningChoice;\n        dispute.arbitrated.rule(_disputeID, winningChoice);\n    }\n\n    /* External Views */\n\n    /** @dev Gets a specified subcourt.\n     *  @param _subcourtID The ID of the subcourt.\n     */\n    function getSubcourt(uint96 _subcourtID) external view returns(\n        uint96 parent,\n        uint[] children,\n        bool hiddenVotes,\n        uint minStake,\n        uint alpha,\n        uint jurorFee,\n        uint jurorsForJump,\n        uint[4] timesPerPeriod\n    ) {\n        Court storage subcourt = courts[_subcourtID];\n        parent = subcourt.parent;\n        children = subcourt.children;\n        hiddenVotes = subcourt.hiddenVotes;\n        minStake = subcourt.minStake;\n        alpha = subcourt.alpha;\n        jurorFee = subcourt.jurorFee;\n        jurorsForJump = subcourt.jurorsForJump;\n        timesPerPeriod = subcourt.timesPerPeriod;\n    }\n\n    /** @dev Gets a specified vote for a specified appeal in a specified dispute.\n     *  @param _disputeID The ID of the dispute.\n     *  @param _appeal The appeal.\n     *  @param _voteID The ID of the vote.\n     */\n    function getVote(uint _disputeID, uint _appeal, uint _voteID) external view returns(\n        address account,\n        bytes32 commit,\n        uint choice,\n        bool voted\n    ) {\n        Vote storage vote = disputes[_disputeID].votes[_appeal][_voteID];\n        account = vote.account;\n        commit = vote.commit;\n        choice = vote.choice;\n        voted = vote.voted;\n    }\n\n    /** @dev Gets the vote counter for a specified appeal in a specified dispute.\n     *  @param _disputeID The ID of the dispute.\n     *  @param _appeal The appeal.\n     */\n    function getVoteCounter(uint _disputeID, uint _appeal) external view returns(\n        uint winningChoice,\n        uint[] counts,\n        bool tied\n    ) {\n        VoteCounter storage voteCounter = disputes[_disputeID].voteCounters[_appeal];\n        winningChoice = voteCounter.winningChoice;\n        counts = voteCounter.counts;\n        tied = voteCounter.tied;\n    }\n\n    /** @dev Gets a specified dispute's non primitive properties.\n     *  @param _disputeID The ID of the dispute.\n     */\n    function getDispute(uint _disputeID) external view returns(\n        uint[] jurorAtStake,\n        uint[] totalJurorFees,\n        uint[] repartitionsPerRound,\n        uint[] penaltiesPerRound,\n        uint[] tokenRewardPerRound,\n        uint[] ETHRewardPerRound\n    ) {\n        Dispute storage dispute = disputes[_disputeID];\n        jurorAtStake = dispute.jurorAtStake;\n        totalJurorFees = dispute.totalJurorFees;\n        repartitionsPerRound = dispute.repartitionsPerRound;\n        penaltiesPerRound = dispute.penaltiesPerRound;\n        for (uint i = 0; i < dispute.rewardsPerRound.length; i++) {\n            tokenRewardPerRound[i] = dispute.rewardsPerRound[i][0];\n            ETHRewardPerRound[i] = dispute.rewardsPerRound[i][1];\n        }\n    }\n\n    /** @dev Gets a specified juror.\n     *  @param _jurorID The ID of the juror.\n     */\n    function getJuror(address _jurorID) external view returns(\n        uint96[] subcourtIDs,\n        uint stakedTokens,\n        uint lockedTokens\n    ) {\n        Juror storage juror = jurors[_jurorID];\n        subcourtIDs = juror.subcourtIDs;\n        stakedTokens = juror.stakedTokens;\n        lockedTokens = juror.lockedTokens;\n    }\n\n    /* Public */\n\n    /** @dev Creates a dispute. Must be called by the arbitrable contract.\n     *  @param _numberOfChoices Number of choices to choose from in the dispute to be created.\n     *  @param _extraData Additional info about the dispute to be created. We use it to pass the ID of the subcourt to create the dispute in.\n     *  @return The ID of the created dispute.\n     */\n    function createDispute(\n        uint _numberOfChoices,\n        bytes _extraData\n    ) public payable requireArbitrationFee(_extraData) returns(uint disputeID)  {\n        uint96 subcourtID = extraDataToSubcourtID(_extraData);\n        disputeID = disputes.length++;\n        Dispute storage dispute = disputes[disputeID];\n        dispute.subcourtID = subcourtID;\n        dispute.arbitrated = Arbitrable(msg.sender);\n        dispute.numberOfChoices = _numberOfChoices;\n        dispute.period = Period.evidence;\n        dispute.lastPeriodChange = now;\n        // As many votes that can be afforded by the provided funds.\n        dispute.votes[dispute.votes.length++].length = msg.value / courts[dispute.subcourtID].jurorFee;\n        // Add one for choice \"0\", \"refuse to arbitrate\"/\"no ruling\".\n        dispute.voteCounters[dispute.voteCounters.length++].counts.length = dispute.numberOfChoices + 1;\n        dispute.voteCounters[dispute.voteCounters.length - 1].tied = true;\n        dispute.jurorAtStake.push((courts[dispute.subcourtID].minStake * courts[dispute.subcourtID].alpha) / ALPHA_DIVISOR);\n        dispute.totalJurorFees.push(msg.value);\n        dispute.repartitionsPerRound.push(0);\n        dispute.penaltiesPerRound.push(0);\n        dispute.rewardsPerRound.length++;\n        disputesWithoutJurors++;\n\n        emit DisputeCreation(disputeID, Arbitrable(msg.sender));\n    }\n\n    /** @dev Appeal the ruling of a specified dispute.\n     *  @param _disputeID The ID of the dispute.\n     *  @param _extraData Additional info about the appeal.\n     */\n    function appeal(\n        uint _disputeID,\n        bytes _extraData\n    ) public payable requireAppealFee(_disputeID, _extraData) onlyDuringPeriod(_disputeID, Period.appeal) {\n        Dispute storage dispute = disputes[_disputeID];\n        if (dispute.votes[dispute.votes.length - 1].length >= courts[dispute.subcourtID].jurorsForJump) // Jump to parent subcourt.\n            dispute.subcourtID = courts[dispute.subcourtID].parent;\n        dispute.period = Period.evidence;\n        dispute.lastPeriodChange = now;\n        // As many votes that can be afforded by the provided funds.\n        dispute.votes[dispute.votes.length++].length = msg.value / courts[dispute.subcourtID].jurorFee;\n        // Add one for choice \"0\", \"refuse to arbitrate\"/\"no ruling\".\n        dispute.voteCounters[dispute.voteCounters.length++].counts.length = dispute.numberOfChoices + 1;\n        dispute.voteCounters[dispute.voteCounters.length - 1].tied = true;\n        dispute.jurorAtStake.push((courts[dispute.subcourtID].minStake * courts[dispute.subcourtID].alpha) / ALPHA_DIVISOR);\n        dispute.totalJurorFees.push(msg.value);\n        dispute.drawsPerRound = 0;\n        dispute.commitsPerRound = 0;\n        dispute.votesPerRound = 0;\n        dispute.repartitionsPerRound.push(0);\n        dispute.penaltiesPerRound.push(0);\n        dispute.rewardsPerRound.length++;\n        disputesWithoutJurors++;\n\n        emit AppealDecision(_disputeID, Arbitrable(msg.sender));\n    }\n\n    /** @dev Called when `_owner` sends ether to the MiniMe Token contract.\n     *  @param _owner The address that sent the ether to create tokens.\n     *  @return Wether the operation should be allowed or not.\n     */\n    function proxyPayment(address _owner) public payable returns(bool allowed) { allowed = false; }\n\n    /** @dev Notifies the controller about a token transfer allowing the controller to react if desired.\n     *  @param _from The origin of the transfer.\n     *  @param _to The destination of the transfer.\n     *  @param _amount The amount of the transfer.\n     *  @return Wether the operation should be allowed or not.\n     */\n    function onTransfer(address _from, address _to, uint _amount) public returns(bool allowed) {\n        if (_from != address(this) && _to != address(this)) { // Never block penalties or rewards.\n            uint newBalance = pinakion.balanceOf(_from) - _amount;\n            require(newBalance >= jurors[_from].stakedTokens, \"Cannot transfer an amount that would make balance less than stake.\");\n            require(newBalance >= jurors[_from].lockedTokens, \"Cannot transfer an amount that would make balance less than locked stake.\");\n        }\n        allowed = true;\n    }\n\n    /** @dev Notifies the controller about an approval allowing the controller to react if desired.\n     *  @param _owner The address that calls `approve()`.\n     *  @param _spender The spender in the `approve()` call.\n     *  @param _amount The amount in the `approve()` call.\n     *  @return Wether the operation should be allowed or not.\n     */\n    function onApprove(address _owner, address _spender, uint _amount) public returns(bool allowed) { allowed = true; }\n\n    /* Public Views */\n\n    /** @dev Get the cost of arbitration in a specified subcourt.\n     *  @param _extraData Additional info about the dispute. We use it to pass the ID of the subcourt where the dispute will be created in.\n     *  @return The cost.\n     */\n    function arbitrationCost(bytes _extraData) public view returns(uint cost) {\n        uint96 subcourtID = extraDataToSubcourtID(_extraData);\n        cost = courts[subcourtID].jurorFee;\n    }\n\n    /** @dev Get the cost of appealing a specified dispute.\n     *  @param _disputeID The ID of the dispute.\n     *  @param _extraData Additional info about the appeal.\n     *  @return The cost.\n     */\n    function appealCost(uint _disputeID, bytes _extraData) public view returns(uint cost) {\n        Dispute storage dispute = disputes[_disputeID];\n        uint lastNumberOfJurors = dispute.votes[dispute.votes.length - 1].length;\n        if (lastNumberOfJurors >= courts[dispute.subcourtID].jurorsForJump) { // Jump to parent subcourt.\n            if (dispute.subcourtID == 0) // Already in the general court.\n                cost = NON_PAYABLE_AMOUNT;\n            else // Get the cost of the parent subcourt.\n                cost = courts[courts[dispute.subcourtID].parent].jurorFee;\n        } else // Stay in current subcourt.\n            cost = courts[dispute.subcourtID].jurorFee * ((lastNumberOfJurors * 2) + 1);\n    }\n\n    /** @dev Get the status of a specified dispute.\n     *  @param _disputeID The ID of the dispute.\n     *  @return The status.\n     */\n    function disputeStatus(uint _disputeID) public view returns(DisputeStatus status) {\n        Dispute storage dispute = disputes[_disputeID];\n        if (dispute.period < Period.appeal) status = DisputeStatus.Waiting;\n        else if (dispute.period < Period.execution) status = DisputeStatus.Appealable;\n        else status = DisputeStatus.Solved;\n    }\n\n    /** @dev Get the current ruling of a specified dispute.\n     *  @param _disputeID The ID of the dispute.\n     *  @return The current ruling.\n     */\n    function currentRuling(uint _disputeID) public view returns(uint ruling) {\n        Dispute storage dispute = disputes[_disputeID];\n        ruling = dispute.voteCounters[dispute.voteCounters.length - 1].tied ? 0\n            : dispute.voteCounters[dispute.voteCounters.length - 1].winningChoice;\n    }\n\n    /* Internal */\n\n    /** @dev Sets the the specified juror's stake in a subcourt.\n     *  `O(n + p * log(s))` where `n` is the number of subcourts the juror has staked in, `p` is the depth of the subcourt tree, and `s` is the maximum number of stakers in one of these subcourts.\n     *  @param _account The address of the juror.\n     *  @param _subcourtID The ID of the subcourt.\n     *  @param _stake The new stake.\n     */\n    function _setStake(address _account, uint96 _subcourtID, uint _stake) internal {\n        // Delayed action logic.\n        if (phase != Phase.staking) {\n            delayedSetStakes[++lastDelayedSetStake] = DelayedSetStake({ account: _account, subcourtID: _subcourtID, stake: _stake });\n            return;\n        }\n\n        require(\n            _stake == 0 || courts[_subcourtID].minStake <= _stake,\n            \"The juror's stake cannot be lower than the minimum stake for the subcourt.\"\n        );\n        Juror storage juror = jurors[_account];\n        bytes32 stakePathID = accountAndSubcourtIDToStakePathID(_account, _subcourtID);\n        uint currentStake = stakeOf(bytes32(_subcourtID), stakePathID);\n        uint newTotalStake = juror.stakedTokens - currentStake + _stake;\n        require(\n            _stake == 0 || pinakion.balanceOf(_account) >= newTotalStake,\n            \"The juror's total amount of staked tokens cannot be higher than the juror's balance.\"\n        );\n\n        // Update juror's records.\n        juror.stakedTokens = newTotalStake;\n        if (_stake == 0) {\n            for (uint i = 0; i < juror.subcourtIDs.length; i++)\n                if (juror.subcourtIDs[i] == _subcourtID) {\n                    juror.subcourtIDs[i] = juror.subcourtIDs[juror.subcourtIDs.length - 1];\n                    juror.subcourtIDs.length--;\n                    break;\n                }\n        } else if (currentStake == 0) juror.subcourtIDs.push(_subcourtID);\n\n        // Update subcourt parents.\n        bool finished = false;\n        uint currentSubcourtID = _subcourtID;\n        while (!finished) {\n            uint currentSubcourtStake = stakeOf(bytes32(currentSubcourtID), stakePathID);\n            if (currentSubcourtStake == 0) append(bytes32(currentSubcourtID), _stake, stakePathID);\n            else set(\n                bytes32(currentSubcourtID),\n                _stake,\n                stakePathID\n            );\n            if (currentSubcourtID == 0) finished = true;\n            else currentSubcourtID = courts[currentSubcourtID].parent;\n        }\n        emit StakeSet(_account, _subcourtID, _stake, newTotalStake);\n    }\n\n    /** @dev Get a subcourt ID from the specified extra data bytes array.\n     *  @param _extraData The extra data.\n     */\n    function extraDataToSubcourtID(bytes _extraData) internal view returns (uint96 subcourtID) {\n        if (_extraData.length >= 32) {\n            assembly { // solium-disable-line security/no-inline-assembly\n                subcourtID := mload(add(_extraData, 0x20))\n            }\n            if (subcourtID >= courts.length) subcourtID = 0;\n        } else subcourtID = 0;\n    }\n\n    /** @dev Pack an account and a subcourt ID into a stake path ID.\n     *  @param _account The account to pack.\n     *  @param _subcourtID The subcourt ID to pack.\n     *  @return The stake path ID.\n     */\n    function accountAndSubcourtIDToStakePathID(address _account, uint96 _subcourtID) internal pure returns (bytes32 stakePathID) {\n        assembly { // solium-disable-line security/no-inline-assembly\n            let ptr := mload(0x40)\n            for { let i := 0x00 } lt(i, 0x14) { i := add(i, 0x01) } {\n                mstore8(add(ptr, i), byte(add(0x0c, i), _account))\n            }\n            for { let i := 0x14 } lt(i, 0x20) { i := add(i, 0x01) } {\n                mstore8(add(ptr, i), byte(i, _subcourtID))\n            }\n            stakePathID := mload(ptr)\n        }\n    }\n    \n    /** @dev Unpack a stake path ID into an account and a subcourt ID.\n     *  @param _stakePathID The stake path ID to unpack.\n     *  @return The account and subcourt ID.\n     */\n    function stakePathIDToAccountAndSubcourtID(bytes32 _stakePathID) internal pure returns (address account, uint96 subcourtID) {\n        assembly { // solium-disable-line security/no-inline-assembly\n            let ptr := mload(0x40)\n            for { let i := 0x00 } lt(i, 0x14) { i := add(i, 0x01) } {\n                mstore8(add(add(ptr, 0x0c), i), byte(i, _stakePathID))\n            }\n            account := mload(ptr)\n            subcourtID := _stakePathID\n        }\n    }\n}\n",
  "sourcePath": "/Users/epiqueras/Work/kleros/kleros/contracts/kleros/KlerosLiquid.sol",
  "compiler": {
    "name": "solc",
    "version": "0.4.24+commit.e67f0147.Emscripten.clang"
  },
  "schemaVersion": "2.0.1",
  "updatedAt": "2018-11-21T08:48:51.241Z"
}