{
  "contractName": "KlerosLiquidExtraViews",
  "abi": [
    {
      "constant": true,
      "inputs": [],
      "name": "klerosLiquid",
      "outputs": [
        {
          "name": "",
          "type": "address"
        }
      ],
      "payable": false,
      "stateMutability": "view",
      "type": "function"
    },
    {
      "inputs": [
        {
          "name": "_klerosLiquid",
          "type": "address"
        }
      ],
      "payable": false,
      "stateMutability": "nonpayable",
      "type": "constructor"
    },
    {
      "constant": true,
      "inputs": [
        {
          "name": "_account",
          "type": "address"
        },
        {
          "name": "_subcourtID",
          "type": "uint96"
        }
      ],
      "name": "stakeOf",
      "outputs": [
        {
          "name": "stake",
          "type": "uint256"
        }
      ],
      "payable": false,
      "stateMutability": "view",
      "type": "function"
    },
    {
      "constant": true,
      "inputs": [
        {
          "name": "_account",
          "type": "address"
        }
      ],
      "name": "getJuror",
      "outputs": [
        {
          "name": "subcourtIDs",
          "type": "uint96[]"
        },
        {
          "name": "stakedTokens",
          "type": "uint256"
        },
        {
          "name": "lockedTokens",
          "type": "uint256"
        },
        {
          "name": "subcourtStakes",
          "type": "uint256[]"
        }
      ],
      "payable": false,
      "stateMutability": "view",
      "type": "function"
    }
  ],
  "bytecode": "0x608060405234801561001057600080fd5b50604051602080610c31833981016040525160008054600160a060020a03909216600160a060020a0319909216919091179055610bdf806100526000396000f30060806040526004361061003d5763ffffffff60e060020a6000350416636bb6cd868114610042578063a2473cc114610073578063d4155d1f146100b2575b600080fd5b34801561004e57600080fd5b5061005761017a565b60408051600160a060020a039092168252519081900360200190f35b34801561007f57600080fd5b506100a0600160a060020a03600435166001606060020a0360243516610189565b60408051918252519081900360200190f35b3480156100be57600080fd5b506100d3600160a060020a036004351661020d565b604051808060200185815260200184815260200180602001838103835287818151815260200191508051906020019060200280838360005b8381101561012357818101518382015260200161010b565b50505050905001838103825284818151815260200191508051906020019060200280838360005b8381101561016257818101518382015260200161014a565b50505050905001965050505050505060405180910390f35b600054600160a060020a031681565b600060608060006101998661020d565b945050509250600090505b82518110156102045782818151811015156101bb57fe5b906020019060200201516001606060020a0316856001016001606060020a031614156101fc5781818151811015156101ef57fe5b9060200190602002015193505b6001016101a4565b50505092915050565b60606000806060806000806000806000806000809054906101000a9004600160a060020a0316600160a060020a031663b4a616086040518163ffffffff1660e060020a028152600401602060405180830381600087803b15801561027057600080fd5b505af1158015610284573d6000803e3d6000fd5b505050506040513d602081101561029a57600080fd5b50516040805182815260208084028201019091529080156102c5578160200160208202803883390190505b509a506000809054906101000a9004600160a060020a0316600160a060020a031663dca5f6b08d6040518263ffffffff1660e060020a0281526004018082600160a060020a0316600160a060020a031681526020019150506040805180830381600087803b15801561033657600080fd5b505af115801561034a573d6000803e3d6000fd5b505050506040513d604081101561036057600080fd5b508051602091820151600080546040805160e360020a631694c2c10281529051949f50929d50600160a060020a03169363b4a6160893600480850194929391928390030190829087803b1580156103b657600080fd5b505af11580156103ca573d6000803e3d6000fd5b505050506040513d60208110156103e057600080fd5b505160408051828152602080840282010190915290801561040b578160200160208202803883390190505b5097506000809054906101000a9004600160a060020a0316600160a060020a031663d4155d1f8d6040518263ffffffff1660e060020a0281526004018082600160a060020a0316600160a060020a03168152602001915050600060405180830381600087803b15801561047d57600080fd5b505af1158015610491573d6000803e3d6000fd5b505050506040513d6000823e601f3d908101601f1916820160405260208110156104ba57600080fd5b810190808051602060020a8111156104d157600080fd5b820160208101848111156104e457600080fd5b81518560208202830111602060020a8211171561050057600080fd5b50909a5060009950505050505b865186101561062557868681518110151561052457fe5b906020019060200201516001018b8781518110151561053f57fe5b6001606060020a039092166020928302909101909101526000548751600160a060020a039091169063a2473cc1908e908a908a90811061057b57fe5b60209081029091018101516040805160e060020a63ffffffff8716028152600160a060020a0390941660048501526001606060020a039091166024840152516044808401938290030181600087803b1580156105d657600080fd5b505af11580156105ea573d6000803e3d6000fd5b505050506040513d602081101561060057600080fd5b5051885189908890811061061057fe5b6020908102909101015260019095019461050d565b6000809054906101000a9004600160a060020a0316600160a060020a031663c108f3b46040518163ffffffff1660e060020a028152600401602060405180830381600087803b15801561067757600080fd5b505af115801561068b573d6000803e3d6000fd5b505050506040513d60208110156106a157600080fd5b505195505b6000809054906101000a9004600160a060020a0316600160a060020a0316630d44cf796040518163ffffffff1660e060020a028152600401602060405180830381600087803b1580156106f857600080fd5b505af115801561070c573d6000803e3d6000fd5b505050506040513d602081101561072257600080fd5b50518611610ba557600080546040805160e060020a63b78a80ff028152600481018a90529051600160a060020a039092169263b78a80ff926024808401936060939083900390910190829087803b15801561077c57600080fd5b505af1158015610790573d6000803e3d6000fd5b505050506040513d60608110156107a657600080fd5b50805160208201516040909201519096509094509250600160a060020a038c81169086161415610b9a576001608060020a038316151561087657600091505b8a51821015610871578a828151811015156107fc57fe5b906020019060200201516001606060020a0316846001606060020a031614156108665760008b8381518110151561082f57fe5b6001606060020a03909216602092830290910190910152875160009089908490811061085757fe5b60209081029091010152610871565b6001909101906107e5565b610b9a565b600091505b8a51600202821015610b9a578a51821080156108c257508a828151811015156108a057fe5b906020019060200201516001606060020a0316846001016001606060020a0316145b8061090557508a51821015801561090557508a8b51838115156108e157fe5b068151811015156108ee57fe5b906020019060200201516001606060020a03166000145b15610b8f576000548b51600160a060020a0390911690631f5a0dd2908481151561092b57fe5b066040518263ffffffff1660e060020a0281526004018082815260200191505060c060405180830381600087803b15801561096557600080fd5b505af1158015610979573d6000803e3d6000fd5b505050506040513d60c081101561098f57600080fd5b506040015190506001608060020a0383168111801590610af15750826001608060020a0316888c51848115156109c157fe5b068151811015156109ce57fe5b906020019060200201518b03016000809054906101000a9004600160a060020a0316600160a060020a031663fbf405b06040518163ffffffff1660e060020a028152600401602060405180830381600087803b158015610a2d57600080fd5b505af1158015610a41573d6000803e3d6000fd5b505050506040513d6020811015610a5757600080fd5b8101908080519060200190929190505050600160a060020a03166370a082318e6040518263ffffffff1660e060020a0281526004018082600160a060020a0316600160a060020a03168152602001915050602060405180830381600087803b158015610ac257600080fd5b505af1158015610ad6573d6000803e3d6000fd5b505050506040513d6020811015610aec57600080fd5b505110155b15610b8f57836001018b8c5184811515610b0757fe5b06815181101515610b1457fe5b6001606060020a039092166020928302909101909101528a516001608060020a03841690899084811515610b4457fe5b06815181101515610b5157fe5b906020019060200201518b03019950826001608060020a0316888c5184811515610b7757fe5b06815181101515610b8457fe5b602090810290910101525b60019091019061087b565b6001909501946106a6565b5050505050505091935091935600a165627a7a7230582013e27f9122b20d4cc119121528863190428a473d0931d733b25a0254c7995b000029",
  "source": "/**\n *  https://contributing.kleros.io/smart-contract-workflow\n *  @reviewers: []\n *  @auditors: []\n *  @bounties: []\n *  @deployments: []\n */\npragma solidity ^0.4.24;\n\nimport { KlerosLiquid } from \"./KlerosLiquid.sol\";\n\n/**\n *  @title KlerosLiquidExtraViews\n *  @author Enrique Piqueras - <epiquerass@gmail.com>\n *  @dev Extra view functions for KlerosLiquid. Not part of bug bounty.\n */\ncontract KlerosLiquidExtraViews {\n    /* Storage */\n\n    KlerosLiquid public klerosLiquid;\n\n    /* Constructor */\n\n    /** @dev Constructs the KlerosLiquidExtraViews contract.\n     *  @param _klerosLiquid The address of KlerosLiquid.\n     */\n    constructor(KlerosLiquid _klerosLiquid) public {\n        klerosLiquid = _klerosLiquid;\n    }\n\n    /* External Views */\n\n    /** @dev Gets the stake of a specified juror in a specified subcourt, taking into account delayed set stakes.\n     *  @param _account The address of the juror.\n     *  @param _subcourtID The ID of the subcourt.\n     *  @return The stake.\n     */\n    function stakeOf(address _account, uint96 _subcourtID) external view returns(uint stake) {\n        (\n            uint96[] memory subcourtIDs,\n            ,\n            ,\n            uint[] memory subcourtStakes\n        ) = getJuror(_account);\n        for (uint i = 0; i < subcourtIDs.length; i++) {\n            if (_subcourtID + 1 == subcourtIDs[i]) {\n                stake = subcourtStakes[i];\n            }\n        }\n    }\n\n    /* Public Views */\n\n    /** @dev Gets a specified juror's properties, taking into account delayed set stakes. Note that subcourt IDs are shifted by 1 so that 0 can be \"empty\".\n     *  @param _account The address of the juror.\n     *  @return The juror's properties, taking into account delayed set stakes.\n     */\n    function getJuror(address _account) public view returns(\n        uint96[] subcourtIDs,\n        uint stakedTokens,\n        uint lockedTokens,\n        uint[] subcourtStakes\n    ) {\n        subcourtIDs = new uint96[](klerosLiquid.MAX_STAKE_PATHS());\n        (stakedTokens, lockedTokens) = klerosLiquid.jurors(_account);\n        subcourtStakes = new uint[](klerosLiquid.MAX_STAKE_PATHS());\n\n        uint96[] memory actualSubcourtIDs = klerosLiquid.getJuror(_account);\n        for (uint i = 0; i < actualSubcourtIDs.length; i++) {\n            subcourtIDs[i] = actualSubcourtIDs[i] + 1;\n            subcourtStakes[i] = klerosLiquid.stakeOf(_account, actualSubcourtIDs[i]);\n        }\n\n        for (i = klerosLiquid.nextDelayedSetStake(); i <= klerosLiquid.lastDelayedSetStake(); i++) {\n            (address account, uint96 subcourtID, uint128 stake) = klerosLiquid.delayedSetStakes(i);\n            if (_account == account) {\n                if (stake == 0) {\n                    for (uint j = 0; j < subcourtIDs.length; j++) {\n                        if (subcourtID == subcourtIDs[j]) {\n                            subcourtIDs[j] = 0;\n                            subcourtStakes[j] = 0;\n                            break;\n                        }\n                    }\n                } else {\n                    for (j = 0; j < subcourtIDs.length * 2; j++) {\n                        if ((j < subcourtIDs.length && subcourtID + 1 == subcourtIDs[j]) || (j >= subcourtIDs.length && subcourtIDs[j % subcourtIDs.length] == 0)) {\n                            (\n                                ,\n                                ,\n                                uint courtMinStake,\n                                ,\n                                ,\n                            ) = klerosLiquid.courts(j % subcourtIDs.length);\n                            if (\n                                courtMinStake <= stake &&\n                                klerosLiquid.pinakion().balanceOf(_account) >= stakedTokens - subcourtStakes[j % subcourtIDs.length] + stake\n                            ) {\n                                subcourtIDs[j % subcourtIDs.length] = subcourtID + 1;\n                                stakedTokens = stakedTokens - subcourtStakes[j % subcourtIDs.length] + stake;\n                                subcourtStakes[j % subcourtIDs.length] = stake;\n                            }\n                        }\n                    }\n                }\n            }\n        }\n    }\n}\n",
  "sourcePath": "/Users/epiqueras/Work/kleros/kleros/contracts/kleros/KlerosLiquidExtraViews.sol",
  "compiler": {
    "name": "solc",
    "version": "0.4.24+commit.e67f0147.Emscripten.clang"
  },
  "schemaVersion": "2.0.1",
  "updatedAt": "2019-03-18T19:49:44.797Z"
}