{
  "contractName": "MiniMeTokenERC20",
  "abi": [
    {
      "constant": true,
      "inputs": [],
      "name": "name",
      "outputs": [
        {
          "name": "",
          "type": "string"
        }
      ],
      "payable": false,
      "stateMutability": "view",
      "type": "function"
    },
    {
      "constant": true,
      "inputs": [],
      "name": "creationBlock",
      "outputs": [
        {
          "name": "",
          "type": "uint256"
        }
      ],
      "payable": false,
      "stateMutability": "view",
      "type": "function"
    },
    {
      "constant": true,
      "inputs": [],
      "name": "totalSupply",
      "outputs": [
        {
          "name": "",
          "type": "uint256"
        }
      ],
      "payable": false,
      "stateMutability": "view",
      "type": "function"
    },
    {
      "constant": false,
      "inputs": [
        {
          "name": "_from",
          "type": "address"
        },
        {
          "name": "_to",
          "type": "address"
        },
        {
          "name": "_amount",
          "type": "uint256"
        }
      ],
      "name": "transferFrom",
      "outputs": [
        {
          "name": "success",
          "type": "bool"
        }
      ],
      "payable": false,
      "stateMutability": "nonpayable",
      "type": "function"
    },
    {
      "constant": true,
      "inputs": [],
      "name": "decimals",
      "outputs": [
        {
          "name": "",
          "type": "uint8"
        }
      ],
      "payable": false,
      "stateMutability": "view",
      "type": "function"
    },
    {
      "constant": false,
      "inputs": [
        {
          "name": "_newController",
          "type": "address"
        }
      ],
      "name": "changeController",
      "outputs": [],
      "payable": false,
      "stateMutability": "nonpayable",
      "type": "function"
    },
    {
      "constant": true,
      "inputs": [
        {
          "name": "_owner",
          "type": "address"
        },
        {
          "name": "_blockNumber",
          "type": "uint256"
        }
      ],
      "name": "balanceOfAt",
      "outputs": [
        {
          "name": "",
          "type": "uint256"
        }
      ],
      "payable": false,
      "stateMutability": "view",
      "type": "function"
    },
    {
      "constant": true,
      "inputs": [],
      "name": "version",
      "outputs": [
        {
          "name": "",
          "type": "string"
        }
      ],
      "payable": false,
      "stateMutability": "view",
      "type": "function"
    },
    {
      "constant": false,
      "inputs": [
        {
          "name": "_cloneTokenName",
          "type": "string"
        },
        {
          "name": "_cloneDecimalUnits",
          "type": "uint8"
        },
        {
          "name": "_cloneTokenSymbol",
          "type": "string"
        },
        {
          "name": "_snapshotBlock",
          "type": "uint256"
        },
        {
          "name": "_transfersEnabled",
          "type": "bool"
        }
      ],
      "name": "createCloneToken",
      "outputs": [
        {
          "name": "",
          "type": "address"
        }
      ],
      "payable": false,
      "stateMutability": "nonpayable",
      "type": "function"
    },
    {
      "constant": true,
      "inputs": [
        {
          "name": "_owner",
          "type": "address"
        }
      ],
      "name": "balanceOf",
      "outputs": [
        {
          "name": "balance",
          "type": "uint256"
        }
      ],
      "payable": false,
      "stateMutability": "view",
      "type": "function"
    },
    {
      "constant": true,
      "inputs": [],
      "name": "parentToken",
      "outputs": [
        {
          "name": "",
          "type": "address"
        }
      ],
      "payable": false,
      "stateMutability": "view",
      "type": "function"
    },
    {
      "constant": false,
      "inputs": [
        {
          "name": "_owner",
          "type": "address"
        },
        {
          "name": "_amount",
          "type": "uint256"
        }
      ],
      "name": "generateTokens",
      "outputs": [
        {
          "name": "",
          "type": "bool"
        }
      ],
      "payable": false,
      "stateMutability": "nonpayable",
      "type": "function"
    },
    {
      "constant": true,
      "inputs": [],
      "name": "symbol",
      "outputs": [
        {
          "name": "",
          "type": "string"
        }
      ],
      "payable": false,
      "stateMutability": "view",
      "type": "function"
    },
    {
      "constant": true,
      "inputs": [
        {
          "name": "_blockNumber",
          "type": "uint256"
        }
      ],
      "name": "totalSupplyAt",
      "outputs": [
        {
          "name": "",
          "type": "uint256"
        }
      ],
      "payable": false,
      "stateMutability": "view",
      "type": "function"
    },
    {
      "constant": false,
      "inputs": [
        {
          "name": "_to",
          "type": "address"
        },
        {
          "name": "_amount",
          "type": "uint256"
        }
      ],
      "name": "transfer",
      "outputs": [
        {
          "name": "success",
          "type": "bool"
        }
      ],
      "payable": false,
      "stateMutability": "nonpayable",
      "type": "function"
    },
    {
      "constant": true,
      "inputs": [],
      "name": "transfersEnabled",
      "outputs": [
        {
          "name": "",
          "type": "bool"
        }
      ],
      "payable": false,
      "stateMutability": "view",
      "type": "function"
    },
    {
      "constant": true,
      "inputs": [],
      "name": "parentSnapShotBlock",
      "outputs": [
        {
          "name": "",
          "type": "uint256"
        }
      ],
      "payable": false,
      "stateMutability": "view",
      "type": "function"
    },
    {
      "constant": false,
      "inputs": [
        {
          "name": "_spender",
          "type": "address"
        },
        {
          "name": "_amount",
          "type": "uint256"
        },
        {
          "name": "_extraData",
          "type": "bytes"
        }
      ],
      "name": "approveAndCall",
      "outputs": [
        {
          "name": "success",
          "type": "bool"
        }
      ],
      "payable": false,
      "stateMutability": "nonpayable",
      "type": "function"
    },
    {
      "constant": false,
      "inputs": [
        {
          "name": "_owner",
          "type": "address"
        },
        {
          "name": "_amount",
          "type": "uint256"
        }
      ],
      "name": "destroyTokens",
      "outputs": [
        {
          "name": "",
          "type": "bool"
        }
      ],
      "payable": false,
      "stateMutability": "nonpayable",
      "type": "function"
    },
    {
      "constant": true,
      "inputs": [
        {
          "name": "_owner",
          "type": "address"
        },
        {
          "name": "_spender",
          "type": "address"
        }
      ],
      "name": "allowance",
      "outputs": [
        {
          "name": "remaining",
          "type": "uint256"
        }
      ],
      "payable": false,
      "stateMutability": "view",
      "type": "function"
    },
    {
      "constant": false,
      "inputs": [
        {
          "name": "_token",
          "type": "address"
        }
      ],
      "name": "claimTokens",
      "outputs": [],
      "payable": false,
      "stateMutability": "nonpayable",
      "type": "function"
    },
    {
      "constant": true,
      "inputs": [],
      "name": "tokenFactory",
      "outputs": [
        {
          "name": "",
          "type": "address"
        }
      ],
      "payable": false,
      "stateMutability": "view",
      "type": "function"
    },
    {
      "constant": false,
      "inputs": [
        {
          "name": "_transfersEnabled",
          "type": "bool"
        }
      ],
      "name": "enableTransfers",
      "outputs": [],
      "payable": false,
      "stateMutability": "nonpayable",
      "type": "function"
    },
    {
      "constant": true,
      "inputs": [],
      "name": "controller",
      "outputs": [
        {
          "name": "",
          "type": "address"
        }
      ],
      "payable": false,
      "stateMutability": "view",
      "type": "function"
    },
    {
      "inputs": [
        {
          "name": "_tokenFactory",
          "type": "address"
        },
        {
          "name": "_parentToken",
          "type": "address"
        },
        {
          "name": "_parentSnapShotBlock",
          "type": "uint256"
        },
        {
          "name": "_tokenName",
          "type": "string"
        },
        {
          "name": "_decimalUnits",
          "type": "uint8"
        },
        {
          "name": "_tokenSymbol",
          "type": "string"
        },
        {
          "name": "_transfersEnabled",
          "type": "bool"
        }
      ],
      "payable": false,
      "stateMutability": "nonpayable",
      "type": "constructor"
    },
    {
      "payable": true,
      "stateMutability": "payable",
      "type": "fallback"
    },
    {
      "anonymous": false,
      "inputs": [
        {
          "indexed": true,
          "name": "_token",
          "type": "address"
        },
        {
          "indexed": true,
          "name": "_controller",
          "type": "address"
        },
        {
          "indexed": false,
          "name": "_amount",
          "type": "uint256"
        }
      ],
      "name": "ClaimedTokens",
      "type": "event"
    },
    {
      "anonymous": false,
      "inputs": [
        {
          "indexed": true,
          "name": "_from",
          "type": "address"
        },
        {
          "indexed": true,
          "name": "_to",
          "type": "address"
        },
        {
          "indexed": false,
          "name": "_amount",
          "type": "uint256"
        }
      ],
      "name": "Transfer",
      "type": "event"
    },
    {
      "anonymous": false,
      "inputs": [
        {
          "indexed": true,
          "name": "_cloneToken",
          "type": "address"
        },
        {
          "indexed": false,
          "name": "_snapshotBlock",
          "type": "uint256"
        }
      ],
      "name": "NewCloneToken",
      "type": "event"
    },
    {
      "anonymous": false,
      "inputs": [
        {
          "indexed": true,
          "name": "_owner",
          "type": "address"
        },
        {
          "indexed": true,
          "name": "_spender",
          "type": "address"
        },
        {
          "indexed": false,
          "name": "_amount",
          "type": "uint256"
        }
      ],
      "name": "Approval",
      "type": "event"
    },
    {
      "constant": false,
      "inputs": [
        {
          "name": "_spender",
          "type": "address"
        },
        {
          "name": "_amount",
          "type": "uint256"
        }
      ],
      "name": "approve",
      "outputs": [
        {
          "name": "success",
          "type": "bool"
        }
      ],
      "payable": false,
      "stateMutability": "nonpayable",
      "type": "function"
    }
  ],
  "bytecode": "0x60c0604052600760808190527f4d4d545f302e320000000000000000000000000000000000000000000000000060a09081526200004091600491906200015e565b503480156200004e57600080fd5b5060405162001ad238038062001ad28339810160409081528151602080840151928401516060850151608086015160a087015160c088015160008054600160a060020a03191633179055600b8054600160a060020a0389166101000261010060a860020a0319909116179055928801805196989496909592949190910192918891889188918891889188918891620000ed91600191908701906200015e565b506002805460ff191660ff85161790558151620001129060039060208501906200015e565b5060058054600160a060020a031916600160a060020a039790971696909617909555505050600655600b805460ff19169115159190911790555050436007555062000203945050505050565b828054600181600116156101000203166002900490600052602060002090601f016020900481019282601f10620001a157805160ff1916838001178555620001d1565b82800160010185558215620001d1579182015b82811115620001d1578251825591602001919060010190620001b4565b50620001df929150620001e3565b5090565b6200020091905b80821115620001df5760008155600101620001ea565b90565b6118bf80620002136000396000f30060806040526004361061012f5763ffffffff60e060020a60003504166306fdde0381146101ef578063095ea7b31461027957806317634514146102b157806318160ddd146102d857806323b872dd146102ed578063313ce567146103175780633cebb823146103425780634ee2cd7e1461036357806354fd4d50146103875780636638c0871461039c57806370a082311461045f57806380a5400114610480578063827f32c01461049557806395d89b41146104b9578063981b24d0146104ce578063a9059cbb146104e6578063bef97c871461050a578063c5bcc4f11461051f578063cae9ca5114610534578063d3ce77fe1461059d578063dd62ed3e146105c1578063df8de3e7146105e8578063e77772fe14610609578063f41e60c51461061e578063f77c479114610638575b60005461014490600160a060020a031661064d565b151561014f57600080fd5b600054604080517ff48c30540000000000000000000000000000000000000000000000000000000081523360048201529051600160a060020a039092169163f48c3054913491602480830192602092919082900301818588803b1580156101b557600080fd5b505af11580156101c9573d6000803e3d6000fd5b50505050506040513d60208110156101e057600080fd5b505115156101ed57600080fd5b005b3480156101fb57600080fd5b5061020461067a565b6040805160208082528351818301528351919283929083019185019080838360005b8381101561023e578181015183820152602001610226565b50505050905090810190601f16801561026b5780820380516001836020036101000a031916815260200191505b509250505060405180910390f35b34801561028557600080fd5b5061029d600160a060020a0360043516602435610707565b604080519115158252519081900360200190f35b3480156102bd57600080fd5b506102c661084c565b60408051918252519081900360200190f35b3480156102e457600080fd5b506102c6610852565b3480156102f957600080fd5b5061029d600160a060020a0360043581169060243516604435610863565b34801561032357600080fd5b5061032c6108fa565b6040805160ff9092168252519081900360200190f35b34801561034e57600080fd5b506101ed600160a060020a0360043516610903565b34801561036f57600080fd5b506102c6600160a060020a0360043516602435610949565b34801561039357600080fd5b50610204610a96565b3480156103a857600080fd5b506040805160206004803580820135601f810184900484028501840190955284845261044394369492936024939284019190819084018382808284375050604080516020601f818a01358b0180359182018390048302840183018552818452989b60ff8b35169b909a909994019750919550918201935091508190840183828082843750949750508435955050505050602001351515610af1565b60408051600160a060020a039092168252519081900360200190f35b34801561046b57600080fd5b506102c6600160a060020a0360043516610d4b565b34801561048c57600080fd5b50610443610d5f565b3480156104a157600080fd5b5061029d600160a060020a0360043516602435610d6e565b3480156104c557600080fd5b50610204610e3a565b3480156104da57600080fd5b506102c6600435610e95565b3480156104f257600080fd5b5061029d600160a060020a0360043516602435610f89565b34801561051657600080fd5b5061029d610fa8565b34801561052b57600080fd5b506102c6610fb1565b34801561054057600080fd5b50604080516020600460443581810135601f810184900484028501840190955284845261029d948235600160a060020a0316946024803595369594606494920191908190840183828082843750949750610fb79650505050505050565b3480156105a957600080fd5b5061029d600160a060020a03600435166024356110d2565b3480156105cd57600080fd5b506102c6600160a060020a036004358116906024351661119a565b3480156105f457600080fd5b506101ed600160a060020a03600435166111c5565b34801561061557600080fd5b506104436113ac565b34801561062a57600080fd5b506101ed60043515156113c0565b34801561064457600080fd5b506104436113ea565b600080600160a060020a03831615156106695760009150610674565b823b90506000811191505b50919050565b60018054604080516020600284861615610100026000190190941693909304601f810184900484028201840190925281815292918301828280156106ff5780601f106106d4576101008083540402835291602001916106ff565b820191906000526020600020905b8154815290600101906020018083116106e257829003601f168201915b505050505081565b600b5460009060ff16151561071b57600080fd5b60005461073090600160a060020a031661064d565b156107e45760008054604080517fda682aeb000000000000000000000000000000000000000000000000000000008152336004820152600160a060020a038781166024830152604482018790529151919092169263da682aeb92606480820193602093909283900390910190829087803b1580156107ad57600080fd5b505af11580156107c1573d6000803e3d6000fd5b505050506040513d60208110156107d757600080fd5b505115156107e457600080fd5b336000818152600960209081526040808320600160a060020a03881680855290835292819020869055805186815290519293927f8c5be1e5ebec7d5bd14f71427d1e84f3dd0314c0f7b2291e5b200ac8c7c3b925929181900390910190a35060015b92915050565b60075481565b600061085d43610e95565b90505b90565b60008054600160a060020a031633146108e557600b5460ff16151561088757600080fd5b600160a060020a03841660009081526009602090815260408083203384529091529020548211156108ba575060006108f3565b600160a060020a03841660009081526009602090815260408083203384529091529020805483900390555b6108f08484846113f9565b90505b9392505050565b60025460ff1681565b600054600160a060020a0316331461091a57600080fd5b6000805473ffffffffffffffffffffffffffffffffffffffff1916600160a060020a0392909216919091179055565b600160a060020a03821660009081526008602052604081205415806109a55750600160a060020a03831660009081526008602052604081208054849290811061098e57fe5b6000918252602090912001546001608060020a0316115b15610a6d57600554600160a060020a031615610a6557600554600654600160a060020a0390911690634ee2cd7e9085906109e09086906115eb565b6040518363ffffffff1660e060020a0281526004018083600160a060020a0316600160a060020a0316815260200182815260200192505050602060405180830381600087803b158015610a3257600080fd5b505af1158015610a46573d6000803e3d6000fd5b505050506040513d6020811015610a5c57600080fd5b50519050610846565b506000610846565b600160a060020a0383166000908152600860205260409020610a8f9083611601565b9050610846565b6004805460408051602060026001851615610100026000190190941693909304601f810184900484028201840190925281815292918301828280156106ff5780601f106106d4576101008083540402835291602001916106ff565b600080831515610aff574393505b600b546040517f5b7b72c100000000000000000000000000000000000000000000000000000000815230600482018181526024830188905260ff8a16606484015286151560a484015260c0604484019081528b5160c48501528b51610100909504600160a060020a031694635b7b72c1948a938e938e938e938d939291608482019160e40190602089019080838360005b83811015610ba8578181015183820152602001610b90565b50505050905090810190601f168015610bd55780820380516001836020036101000a031916815260200191505b50838103825285518152855160209182019187019080838360005b83811015610c08578181015183820152602001610bf0565b50505050905090810190601f168015610c355780820380516001836020036101000a031916815260200191505b5098505050505050505050602060405180830381600087803b158015610c5a57600080fd5b505af1158015610c6e573d6000803e3d6000fd5b505050506040513d6020811015610c8457600080fd5b5051604080517f3cebb8230000000000000000000000000000000000000000000000000000000081523360048201529051919250600160a060020a03831691633cebb8239160248082019260009290919082900301818387803b158015610cea57600080fd5b505af1158015610cfe573d6000803e3d6000fd5b5050604080518781529051600160a060020a03851693507f086c875b377f900b07ce03575813022f05dd10ed7640b5282cf6d3c3fc352ade92509081900360200190a29695505050505050565b6000610d578243610949565b90505b919050565b600554600160a060020a031681565b6000805481908190600160a060020a03163314610d8a57600080fd5b610d92610852565b9150838201821115610da357600080fd5b610dac85610d4b565b9050838101811115610dbd57600080fd5b610dca600a858401611760565b600160a060020a0385166000908152600860205260409020610dee90828601611760565b604080518581529051600160a060020a038716916000917fddf252ad1be2c89b69c2b068fc378daa952ba7f163c4a11628f55a4df523b3ef9181900360200190a3506001949350505050565b6003805460408051602060026001851615610100026000190190941693909304601f810184900484028201840190925281815292918301828280156106ff5780601f106106d4576101008083540402835291602001916106ff565b600a546000901580610eca575081600a6000815481101515610eb357fe5b6000918252602090912001546001608060020a0316115b15610f7757600554600160a060020a031615610f6f57600554600654600160a060020a039091169063981b24d090610f039085906115eb565b6040518263ffffffff1660e060020a02815260040180828152602001915050602060405180830381600087803b158015610f3c57600080fd5b505af1158015610f50573d6000803e3d6000fd5b505050506040513d6020811015610f6657600080fd5b50519050610d5a565b506000610d5a565b610f82600a83611601565b9050610d5a565b600b5460009060ff161515610f9d57600080fd5b6108f33384846113f9565b600b5460ff1681565b60065481565b6000610fc38484610707565b1515610fce57600080fd5b6040517f8f4ffcb10000000000000000000000000000000000000000000000000000000081523360048201818152602483018690523060448401819052608060648501908152865160848601528651600160a060020a038a1695638f4ffcb195948a94938a939192909160a490910190602085019080838360005b83811015611061578181015183820152602001611049565b50505050905090810190601f16801561108e5780820380516001836020036101000a031916815260200191505b5095505050505050600060405180830381600087803b1580156110b057600080fd5b505af11580156110c4573d6000803e3d6000fd5b506001979650505050505050565b6000805481908190600160a060020a031633146110ee57600080fd5b6110f6610852565b91508382101561110557600080fd5b61110e85610d4b565b90508381101561111d57600080fd5b61112a600a858403611760565b600160a060020a038516600090815260086020526040902061114e90858303611760565b604080518581529051600091600160a060020a038816917fddf252ad1be2c89b69c2b068fc378daa952ba7f163c4a11628f55a4df523b3ef9181900360200190a3506001949350505050565b600160a060020a03918216600090815260096020908152604080832093909416825291909152205490565b600080548190600160a060020a031633146111df57600080fd5b600160a060020a03831615156112305760008054604051600160a060020a0390911691303180156108fc02929091818181858888f1935050505015801561122a573d6000803e3d6000fd5b506113a7565b604080517f70a082310000000000000000000000000000000000000000000000000000000081523060048201529051849350600160a060020a038416916370a082319160248083019260209291908290030181600087803b15801561129457600080fd5b505af11580156112a8573d6000803e3d6000fd5b505050506040513d60208110156112be57600080fd5b505160008054604080517fa9059cbb000000000000000000000000000000000000000000000000000000008152600160a060020a0392831660048201526024810185905290519394509085169263a9059cbb92604480840193602093929083900390910190829087803b15801561133457600080fd5b505af1158015611348573d6000803e3d6000fd5b505050506040513d602081101561135e57600080fd5b5050600054604080518381529051600160a060020a03928316928616917ff931edb47c50b4b4104c187b5814a9aef5f709e17e2ecf9617e860cacade929c919081900360200190a35b505050565b600b546101009004600160a060020a031681565b600054600160a060020a031633146113d757600080fd5b600b805460ff1916911515919091179055565b600054600160a060020a031681565b6000808083151561140d57600192506115e2565b600654431161141b57600080fd5b600160a060020a0385161580159061143c5750600160a060020a0385163014155b151561144757600080fd5b6114518643610949565b91508382101561146457600092506115e2565b60005461147990600160a060020a031661064d565b1561152f5760008054604080517f4a393149000000000000000000000000000000000000000000000000000000008152600160a060020a038a8116600483015289811660248301526044820189905291519190921692634a39314992606480820193602093909283900390910190829087803b1580156114f857600080fd5b505af115801561150c573d6000803e3d6000fd5b505050506040513d602081101561152257600080fd5b5051151561152f57600080fd5b600160a060020a038616600090815260086020526040902061155390858403611760565b61155d8543610949565b905083810181111561156e57600080fd5b600160a060020a038516600090815260086020526040902061159290828601611760565b84600160a060020a031686600160a060020a03167fddf252ad1be2c89b69c2b068fc378daa952ba7f163c4a11628f55a4df523b3ef866040518082815260200191505060405180910390a3600192505b50509392505050565b60008183106115fa57816108f3565b5090919050565b60008060008085805490506000141561161d5760009350611757565b85548690600019810190811061162f57fe5b6000918252602090912001546001608060020a0316851061168c5785548690600019810190811061165c57fe5b60009182526020909120015470010000000000000000000000000000000090046001608060020a03169350611757565b85600081548110151561169b57fe5b6000918252602090912001546001608060020a03168510156116c05760009350611757565b8554600093506000190191505b8282111561171d5760026001838501010490508486828154811015156116ef57fe5b6000918252602090912001546001608060020a03161161171157809250611718565b6001810391505b6116cd565b858381548110151561172b57fe5b60009182526020909120015470010000000000000000000000000000000090046001608060020a031693505b50505092915050565b8154600090819015806117995750835443908590600019810190811061178257fe5b6000918252602090912001546001608060020a0316105b1561180b57835484906117af8260018301611856565b815481106117b957fe5b600091825260209091200180546001608060020a03858116700100000000000000000000000000000000024382166fffffffffffffffffffffffffffffffff1990931692909217161781559150611850565b83548490600019810190811061181d57fe5b600091825260209091200180546001608060020a0380861670010000000000000000000000000000000002911617815590505b50505050565b8154818355818111156113a7576000838152602090206113a791810190830161086091905b8082111561188f576000815560010161187b565b50905600a165627a7a723058205840b05fb88395c9987a56b97e2261bd27afa3b52790bd0360d251a0421198e10029",
  "source": " /**\n *  @title Mini Me Token ERC20\n *  Overwrite the MiniMeToken to make it follow ERC20 recommendation.\n *  This is required because the base token reverts when approve is used with the non zero value while allowed is non zero (which not recommended by the standard, see https://github.com/ethereum/EIPs/blob/master/EIPS/eip-20-token-standard.md).\n *  @author Clment Lesaege - <clement@lesaege.com>\n *  Bug Bounties: This code hasn't undertaken a bug bounty program yet.\n */\n\npragma solidity ^0.4.18;\n\nimport \"minimetoken/contracts/MiniMeToken.sol\";\n\ncontract MiniMeTokenERC20 is MiniMeToken {\n\n    /** @notice Constructor to create a MiniMeTokenERC20\n     *  @param _tokenFactory The address of the MiniMeTokenFactory contract that will\n     *   create the Clone token contracts, the token factory needs to be deployed first\n     *  @param _parentToken Address of the parent token, set to 0x0 if it is a new token\n     *  @param _parentSnapShotBlock Block of the parent token that will determine the\n     *   initial distribution of the clone token, set to 0 if it is a new token\n     *  @param _tokenName Name of the new token\n     *  @param _decimalUnits Number of decimals of the new token\n     *  @param _tokenSymbol Token Symbol for the new token\n     *  @param _transfersEnabled If true, tokens will be able to be transferred\n     */\n    constructor(\n        address _tokenFactory,\n        address _parentToken,\n        uint _parentSnapShotBlock,\n        string _tokenName,\n        uint8 _decimalUnits,\n        string _tokenSymbol,\n        bool _transfersEnabled\n    )  MiniMeToken(\n        _tokenFactory,\n        _parentToken,\n        _parentSnapShotBlock,\n        _tokenName,\n        _decimalUnits,\n        _tokenSymbol,\n        _transfersEnabled\n    ) public {}\n\n    /** @notice `msg.sender` approves `_spender` to spend `_amount` tokens on its behalf.\n      * This is a ERC20 compliant version.\n      * @param _spender The address of the account able to transfer the tokens\n      * @param _amount The amount of tokens to be approved for transfer\n      * @return True if the approval was successful\n      */\n    function approve(address _spender, uint256 _amount) public returns (bool success) {\n        require(transfersEnabled);\n        // Alerts the token controller of the approve function call\n        if (isContract(controller)) {\n            require(TokenController(controller).onApprove(msg.sender, _spender, _amount));\n        }\n\n        allowed[msg.sender][_spender] = _amount;\n        Approval(msg.sender, _spender, _amount);\n        return true;\n    }\n}\n",
  "sourcePath": "kleros-interaction/contracts/standard/arbitration/ArbitrableTokens/MiniMeTokenERC20.sol",
  "compiler": {
    "name": "solc",
    "version": "0.4.24+commit.e67f0147.Emscripten.clang"
  },
  "schemaVersion": "2.0.1",
  "updatedAt": "2018-11-21T08:48:51.123Z"
}