{
  "contractName": "PolicyRegistry",
  "abi": [
    {
      "constant": true,
      "inputs": [],
      "name": "governor",
      "outputs": [
        {
          "name": "",
          "type": "address"
        }
      ],
      "payable": false,
      "stateMutability": "view",
      "type": "function"
    },
    {
      "constant": true,
      "inputs": [
        {
          "name": "",
          "type": "uint256"
        }
      ],
      "name": "policies",
      "outputs": [
        {
          "name": "fileURI",
          "type": "string"
        },
        {
          "name": "fileHash",
          "type": "bytes32"
        }
      ],
      "payable": false,
      "stateMutability": "view",
      "type": "function"
    },
    {
      "inputs": [
        {
          "name": "_governor",
          "type": "address"
        }
      ],
      "payable": false,
      "stateMutability": "nonpayable",
      "type": "constructor"
    },
    {
      "anonymous": false,
      "inputs": [
        {
          "indexed": true,
          "name": "_subcourtID",
          "type": "uint256"
        },
        {
          "indexed": false,
          "name": "_fileURI",
          "type": "string"
        },
        {
          "indexed": false,
          "name": "_fileHash",
          "type": "bytes32"
        }
      ],
      "name": "PolicyUpdate",
      "type": "event"
    },
    {
      "constant": false,
      "inputs": [
        {
          "name": "_governor",
          "type": "address"
        }
      ],
      "name": "changeGovernor",
      "outputs": [],
      "payable": false,
      "stateMutability": "nonpayable",
      "type": "function"
    },
    {
      "constant": false,
      "inputs": [
        {
          "name": "_subcourtID",
          "type": "uint256"
        },
        {
          "name": "_fileURI",
          "type": "string"
        },
        {
          "name": "_fileHash",
          "type": "bytes32"
        }
      ],
      "name": "setPolicy",
      "outputs": [],
      "payable": false,
      "stateMutability": "nonpayable",
      "type": "function"
    }
  ],
  "bytecode": "0x608060405234801561001057600080fd5b5060405160208061056e833981016040525160008054600160a060020a03909216600160a060020a031990921691909117905561051c806100526000396000f3006080604052600436106100485763ffffffff60e060020a6000350416630c340a24811461004d578063bc0d43751461007e578063d3e89483146100a7578063e4c0aaf41461013f575b600080fd5b34801561005957600080fd5b50610062610160565b60408051600160a060020a039092168252519081900360200190f35b34801561008a57600080fd5b506100a560048035906024803590810191013560443561016f565b005b3480156100b357600080fd5b506100bf600435610312565b604080516020808201849052828252845192820192909252835190918291606083019186019080838360005b838110156101035781810151838201526020016100eb565b50505050905090810190601f1680156101305780820380516001836020036101000a031916815260200191505b50935050505060405180910390f35b34801561014b57600080fd5b506100a5600160a060020a03600435166103b4565b600054600160a060020a031681565b60008054600160a060020a031633146101cf576040805160e560020a62461bcd02815260206004820152602360248201526000805160206104d1833981519152604482015260e960020a6237b91702606482015290519081900360840190fd5b506000848152600160208181526040928390208083015484519283018190528483528154600261010095821615959095026000190116939093049382018490529287927f92eac1644e5b7aa3d44968da027bbd73d56f86e859d457b69bb9c7b53c3ec86b928592819060608201908590801561028c5780601f106102615761010080835404028352916020019161028c565b820191906000526020600020905b81548152906001019060200180831161026f57829003601f168201915b5050935050505060405180910390a26040805160606020601f870181900402820181018352918101858152909182919087908790819085018382808284375050509284525050506020908101849052600087815260018252604090208251805191926102fd92849290910190610435565b50602091909101516001909101555050505050565b60016020818152600092835260409283902080548451600294821615610100026000190190911693909304601f81018390048302840183019094528383529283918301828280156103a45780601f10610379576101008083540402835291602001916103a4565b820191906000526020600020905b81548152906001019060200180831161038757829003601f168201915b5050505050908060010154905082565b600054600160a060020a03163314610413576040805160e560020a62461bcd02815260206004820152602360248201526000805160206104d1833981519152604482015260e960020a6237b91702606482015290519081900360840190fd5b60008054600160a060020a031916600160a060020a0392909216919091179055565b828054600181600116156101000203166002900490600052602060002090601f016020900481019282601f1061047657805160ff19168380011785556104a3565b828001600101855582156104a3579182015b828111156104a3578251825591602001919060010190610488565b506104af9291506104b3565b5090565b6104cd91905b808211156104af57600081556001016104b9565b90560043616e206f6e6c792062652063616c6c65642062792074686520676f7665726ea165627a7a7230582053ae5945f1980d5237bff8c5f46fd17d5927d8113a747b367241c3fb75dec7340029",
  "source": "pragma solidity ^0.4.24;\n\n/**\n *  @title PolicyRegistry\n *  @author Enrique Piqueras - <epiquerass@gmail.com>\n *  @dev A contract to maintain a policy for each subcourt.\n */\ncontract PolicyRegistry {\n    /* Structs */\n\n    struct Policy {\n        string fileURI;\n        bytes32 fileHash;\n    }\n\n    /* Events */\n\n    /** @dev Emitted when a policy is updated.\n     *  @param _subcourtID The ID of the policy's subcourt.\n     *  @param _fileURI The URI to the file containing the policy text.\n     *  @param _fileHash The hash of the file's contents.\n     */\n    event PolicyUpdate(uint indexed _subcourtID, string _fileURI, bytes32 _fileHash);\n\n    /* Storage */\n\n    address public governor;\n    mapping(uint => Policy) public policies;\n\n    /* Modifiers */\n\n    /** @dev Requires that the sender is the governor. */\n    modifier onlyByGovernor() {require(governor == msg.sender, \"Can only be called by the governor.\"); _;}\n\n    /* Constructor */\n\n    /** @dev Constructs the `PolicyRegistry` contract.\n     *  @param _governor The governor's address.\n     */\n    constructor(address _governor) public {governor = _governor;}\n\n    /* External */\n\n    /** @dev Changes the `governor` storage variable.\n     *  @param _governor The new value for the `governor` storage variable.\n     */\n    function changeGovernor(address _governor) external onlyByGovernor {governor = _governor;}\n\n    /** @dev Sets the policy for the specified subcourt.\n     *  @param _subcourtID The ID of the specified subcourt.\n     *  @param _fileURI The URI to the file containing the policy text.\n     *  @param _fileHash The hash of the file's contents.\n     */\n    function setPolicy(uint _subcourtID, string _fileURI, bytes32 _fileHash) external onlyByGovernor {\n        Policy storage policy = policies[_subcourtID];\n        emit PolicyUpdate(_subcourtID, policy.fileURI, policy.fileHash);\n        policies[_subcourtID] = Policy({\n            fileURI: _fileURI,\n            fileHash: _fileHash\n        });\n    }\n}\n",
  "sourcePath": "/Users/epiqueras/Work/kleros/kleros/contracts/kleros/PolicyRegistry.sol",
  "compiler": {
    "name": "solc",
    "version": "0.4.24+commit.e67f0147.Emscripten.clang"
  },
  "schemaVersion": "2.0.1",
  "updatedAt": "2018-12-11T19:55:48.511Z"
}