{
  "contractName": "PolicyRegistry",
  "abi": [
    {
      "constant": true,
      "inputs": [],
      "name": "governor",
      "outputs": [
        {
          "name": "",
          "type": "address"
        }
      ],
      "payable": false,
      "stateMutability": "view",
      "type": "function"
    },
    {
      "constant": true,
      "inputs": [
        {
          "name": "",
          "type": "uint256"
        }
      ],
      "name": "policies",
      "outputs": [
        {
          "name": "",
          "type": "string"
        }
      ],
      "payable": false,
      "stateMutability": "view",
      "type": "function"
    },
    {
      "inputs": [
        {
          "name": "_governor",
          "type": "address"
        }
      ],
      "payable": false,
      "stateMutability": "nonpayable",
      "type": "constructor"
    },
    {
      "anonymous": false,
      "inputs": [
        {
          "indexed": true,
          "name": "_subcourtID",
          "type": "uint256"
        },
        {
          "indexed": false,
          "name": "_policy",
          "type": "string"
        }
      ],
      "name": "PolicyUpdate",
      "type": "event"
    },
    {
      "constant": false,
      "inputs": [
        {
          "name": "_governor",
          "type": "address"
        }
      ],
      "name": "changeGovernor",
      "outputs": [],
      "payable": false,
      "stateMutability": "nonpayable",
      "type": "function"
    },
    {
      "constant": false,
      "inputs": [
        {
          "name": "_subcourtID",
          "type": "uint256"
        },
        {
          "name": "_policy",
          "type": "string"
        }
      ],
      "name": "setPolicy",
      "outputs": [],
      "payable": false,
      "stateMutability": "nonpayable",
      "type": "function"
    }
  ],
  "bytecode": "0x608060405234801561001057600080fd5b506040516020806104ed833981016040525160008054600160a060020a03909216600160a060020a031990921691909117905561049b806100526000396000f3006080604052600436106100485763ffffffff60e060020a6000350416630c340a24811461004d578063d3e894831461007e578063e4c0aaf41461010b578063f00adf5e1461012e575b600080fd5b34801561005957600080fd5b50610062610152565b60408051600160a060020a039092168252519081900360200190f35b34801561008a57600080fd5b50610096600435610161565b6040805160208082528351818301528351919283929083019185019080838360005b838110156100d05781810151838201526020016100b8565b50505050905090810190601f1680156100fd5780820380516001836020036101000a031916815260200191505b509250505060405180910390f35b34801561011757600080fd5b5061012c600160a060020a03600435166101fb565b005b34801561013a57600080fd5b5061012c60048035906024803590810191013561027c565b600054600160a060020a031681565b60016020818152600092835260409283902080548451600294821615610100026000190190911693909304601f81018390048302840183019094528383529192908301828280156101f35780601f106101c8576101008083540402835291602001916101f3565b820191906000526020600020905b8154815290600101906020018083116101d657829003601f168201915b505050505081565b600054600160a060020a0316331461025a576040805160e560020a62461bcd0281526020600482015260236024820152600080516020610450833981519152604482015260e960020a6237b91702606482015290519081900360840190fd5b60008054600160a060020a031916600160a060020a0392909216919091179055565b600054600160a060020a031633146102db576040805160e560020a62461bcd0281526020600482015260236024820152600080516020610450833981519152604482015260e960020a6237b91702606482015290519081900360840190fd5b600083815260016020818152604092839020835182815281546002948116156101000260001901169390930491830182905286937f6363e8b93c0bbb112f6247819a99f3c99f4a3e0f8e119a64e5ceb6edb9b3cc7b9391928291820190849080156103875780601f1061035c57610100808354040283529160200191610387565b820191906000526020600020905b81548152906001019060200180831161036a57829003601f168201915b50509250505060405180910390a260008381526001602052604090206103ae9083836103b4565b50505050565b828054600181600116156101000203166002900490600052602060002090601f016020900481019282601f106103f55782800160ff19823516178555610422565b82800160010185558215610422579182015b82811115610422578235825591602001919060010190610407565b5061042e929150610432565b5090565b61044c91905b8082111561042e5760008155600101610438565b90560043616e206f6e6c792062652063616c6c65642062792074686520676f7665726ea165627a7a723058200b12ada73837533d784a1122642c2287cc2541b245eb7c06ac05d0f1eaf447470029",
  "source": "pragma solidity ^0.4.24;\n\n/**\n *  @title PolicyRegistry\n *  @author Enrique Piqueras - <epiquerass@gmail.com>\n *  @dev A contract to maintain a policy for each subcourt.\n */\ncontract PolicyRegistry {\n    /* Events */\n\n    /** @dev Emitted when a policy is updated.\n     *  @param _subcourtID The ID of the policy's subcourt.\n     *  @param _policy The URI of the policy JSON.\n     */\n    event PolicyUpdate(uint indexed _subcourtID, string _policy);\n\n    /* Storage */\n\n    address public governor;\n    mapping(uint => string) public policies;\n\n    /* Modifiers */\n\n    /** @dev Requires that the sender is the governor. */\n    modifier onlyByGovernor() {require(governor == msg.sender, \"Can only be called by the governor.\"); _;}\n\n    /* Constructor */\n\n    /** @dev Constructs the `PolicyRegistry` contract.\n     *  @param _governor The governor's address.\n     */\n    constructor(address _governor) public {governor = _governor;}\n\n    /* External */\n\n    /** @dev Changes the `governor` storage variable.\n     *  @param _governor The new value for the `governor` storage variable.\n     */\n    function changeGovernor(address _governor) external onlyByGovernor {governor = _governor;}\n\n    /** @dev Sets the policy for the specified subcourt.\n     *  @param _subcourtID The ID of the specified subcourt.\n     *  @param _policy The URI of the policy JSON.\n     */\n    function setPolicy(uint _subcourtID, string _policy) external onlyByGovernor {\n        emit PolicyUpdate(_subcourtID, policies[_subcourtID]);\n        policies[_subcourtID] = _policy;\n    }\n}\n",
  "sourcePath": "/Users/epiqueras/Work/kleros/kleros/contracts/kleros/PolicyRegistry.sol",
  "compiler": {
    "name": "solc",
    "version": "0.4.24+commit.e67f0147.Emscripten.clang"
  },
  "schemaVersion": "2.0.1",
  "updatedAt": "2019-01-11T16:08:46.015Z"
}